{
    "contractName": "PriceFeed",
    "abi": [
        {
            "anonymous": false,
            "inputs": [
                {
                    "indexed": false,
                    "internalType": "uint256",
                    "name": "_lastGoodPrice",
                    "type": "uint256"
                }
            ],
            "name": "LastGoodPriceUpdated",
            "type": "event"
        },
        {
            "anonymous": false,
            "inputs": [
                {
                    "indexed": true,
                    "internalType": "address",
                    "name": "previousOwner",
                    "type": "address"
                },
                {
                    "indexed": true,
                    "internalType": "address",
                    "name": "newOwner",
                    "type": "address"
                }
            ],
            "name": "OwnershipTransferred",
            "type": "event"
        },
        {
            "anonymous": false,
            "inputs": [
                {
                    "indexed": false,
                    "internalType": "enum PriceFeed.Status",
                    "name": "newStatus",
                    "type": "uint8"
                }
            ],
            "name": "PriceFeedStatusChanged",
            "type": "event"
        },
        {
            "inputs": [],
            "name": "DECIMAL_PRECISION",
            "outputs": [
                {
                    "internalType": "uint256",
                    "name": "",
                    "type": "uint256"
                }
            ],
            "stateMutability": "view",
            "type": "function"
        },
        {
            "inputs": [],
            "name": "ETHUSD_TELLOR_REQ_ID",
            "outputs": [
                {
                    "internalType": "uint256",
                    "name": "",
                    "type": "uint256"
                }
            ],
            "stateMutability": "view",
            "type": "function"
        },
        {
            "inputs": [],
            "name": "MAX_PRICE_DEVIATION_FROM_PREVIOUS_ROUND",
            "outputs": [
                {
                    "internalType": "uint256",
                    "name": "",
                    "type": "uint256"
                }
            ],
            "stateMutability": "view",
            "type": "function"
        },
        {
            "inputs": [],
            "name": "MAX_PRICE_DIFFERENCE_BETWEEN_ORACLES",
            "outputs": [
                {
                    "internalType": "uint256",
                    "name": "",
                    "type": "uint256"
                }
            ],
            "stateMutability": "view",
            "type": "function"
        },
        {
            "inputs": [],
            "name": "NAME",
            "outputs": [
                {
                    "internalType": "string",
                    "name": "",
                    "type": "string"
                }
            ],
            "stateMutability": "view",
            "type": "function"
        },
        {
            "inputs": [],
            "name": "TARGET_DIGITS",
            "outputs": [
                {
                    "internalType": "uint256",
                    "name": "",
                    "type": "uint256"
                }
            ],
            "stateMutability": "view",
            "type": "function"
        },
        {
            "inputs": [],
            "name": "TELLOR_DIGITS",
            "outputs": [
                {
                    "internalType": "uint256",
                    "name": "",
                    "type": "uint256"
                }
            ],
            "stateMutability": "view",
            "type": "function"
        },
        {
            "inputs": [],
            "name": "TIMEOUT",
            "outputs": [
                {
                    "internalType": "uint256",
                    "name": "",
                    "type": "uint256"
                }
            ],
            "stateMutability": "view",
            "type": "function"
        },
        {
            "inputs": [],
            "name": "fetchPrice",
            "outputs": [
                {
                    "internalType": "uint256",
                    "name": "",
                    "type": "uint256"
                }
            ],
            "stateMutability": "nonpayable",
            "type": "function"
        },
        {
            "inputs": [],
            "name": "isOwner",
            "outputs": [
                {
                    "internalType": "bool",
                    "name": "",
                    "type": "bool"
                }
            ],
            "stateMutability": "view",
            "type": "function"
        },
        {
            "inputs": [],
            "name": "lastGoodPrice",
            "outputs": [
                {
                    "internalType": "uint256",
                    "name": "",
                    "type": "uint256"
                }
            ],
            "stateMutability": "view",
            "type": "function"
        },
        {
            "inputs": [],
            "name": "owner",
            "outputs": [
                {
                    "internalType": "address",
                    "name": "",
                    "type": "address"
                }
            ],
            "stateMutability": "view",
            "type": "function"
        },
        {
            "inputs": [],
            "name": "priceAggregator",
            "outputs": [
                {
                    "internalType": "contract AggregatorV3Interface",
                    "name": "",
                    "type": "address"
                }
            ],
            "stateMutability": "view",
            "type": "function"
        },
        {
            "inputs": [
                {
                    "internalType": "address",
                    "name": "_priceAggregatorAddress",
                    "type": "address"
                },
                {
                    "internalType": "address",
                    "name": "_tellorCallerAddress",
                    "type": "address"
                }
            ],
            "name": "setAddresses",
            "outputs": [],
            "stateMutability": "nonpayable",
            "type": "function"
        },
        {
            "inputs": [],
            "name": "status",
            "outputs": [
                {
                    "internalType": "enum PriceFeed.Status",
                    "name": "",
                    "type": "uint8"
                }
            ],
            "stateMutability": "view",
            "type": "function"
        },
        {
            "inputs": [],
            "name": "tellorCaller",
            "outputs": [
                {
                    "internalType": "contract ITellorCaller",
                    "name": "",
                    "type": "address"
                }
            ],
            "stateMutability": "view",
            "type": "function"
        }
    ],
    "bytecode": "608060405234801561001057600080fd5b50600080546001600160a01b0319163390811782556040519091907f8be0079c531659141344cd1fd0a4f28419497f9722a3daafe3b4186f6b6457e0908290a361119f8061005f6000396000f3fe608060405234801561001057600080fd5b50600436106101005760003560e01c80637c61e3bf11610097578063a20baee611610066578063a20baee6146101f3578063a3f4df7e146101fb578063ebf8e6c614610278578063f56f48f21461028057610100565b80637c61e3bf146101975780638da5cb5b1461019f5780638f32d59b146101a757806390107afe146101c357610100565b80633078fff5116100d35780633078fff51461015b57806345079cb41461017f57806358a6aa88146101875780635f42caf81461018f57610100565b80630490be83146101055780630fdb11cf1461011f5780631be5c92f14610127578063200d2ed21461012f575b600080fd5b61010d610288565b60408051918252519081900360200190f35b61010d61028e565b61010d6105d6565b6101376105db565b6040518082600481111561014757fe5b60ff16815260200191505060405180910390f35b6101636105e4565b604080516001600160a01b039092168252519081900360200190f35b61010d6105f3565b61010d6105fe565b61010d61060a565b61016361060f565b61016361061e565b6101af61062d565b604080519115158252519081900360200190f35b6101f1600480360360408110156101d957600080fd5b506001600160a01b038135811691602001351661063e565b005b61010d610781565b61020361078d565b6040805160208082528351818301528351919283929083019185019080838360005b8381101561023d578181015183820152602001610225565b50505050905090810190601f16801561026a5780820380516001836020036101000a031916815260200191505b509250505060405180910390f35b61010d6107b2565b61010d6107b7565b60055481565b60006102986110be565b6102a06107bd565b90506102aa6110be565b6102bc8260000151836080015161090a565b90506102c66110ec565b6102ce6109eb565b9050600060065460ff1660048111156102e357fe5b1415610415576102f38383610a97565b156103525761030181610a9f565b1561031d576103106002610aed565b60055493505050506105d3565b61032681610b53565b15610335576103106001610aed565b61033f6001610aed565b61034881610b76565b93505050506105d3565b61035b83610b91565b1561039d5761036981610a9f565b15610378576103106004610aed565b6103826003610aed565b61038b81610b53565b1561033f5760055493505050506105d3565b6103a78383610b97565b156103f4576103b581610a9f565b156103c4576103106002610aed565b6103cd81610b53565b156103dc576103106001610aed565b6103e68382610c36565b156103355761034883610cb5565b6103fd81610a9f565b1561040c5761040c6004610aed565b61034883610cb5565b600160065460ff16600481111561042857fe5b141561046057610439838383610ccd565b156104485761040c6000610aed565b61045181610a9f565b15610382576103106002610aed565b600260065460ff16600481111561047357fe5b141561049357610484838383610ccd565b156103105761040c6000610aed565b600360065460ff1660048111156104a657fe5b141561054f576104b68383610a97565b156104dd576104c481610a9f565b156104d3576103106002610aed565b6103826001610aed565b6104e683610b91565b15610503576104f481610a9f565b15610382576103106004610aed565b61050c81610a9f565b1561051b5761040c6004610aed565b61052481610b53565b156105365760055493505050506105d3565b6105408382610c36565b156103355761040c6000610aed565b600460065460ff16600481111561056257fe5b14156105cf576105728383610a97565b15610581576103106002610aed565b61058a83610b91565b1561059c5760055493505050506105d3565b6105a7838383610ccd565b156105b65761040c6000610aed565b6105c08383610b97565b1561040c576103106002610aed565b5050505b90565b601281565b60065460ff1681565b6001546001600160a01b031681565b66b1a2bc2ec5000081565b6706f05b59d3b2000081565b600181565b6002546001600160a01b031681565b6000546001600160a01b031690565b6000546001600160a01b0316331490565b61064661062d565b610697576040805162461bcd60e51b815260206004820181905260248201527f4f776e61626c653a2063616c6c6572206973206e6f7420746865206f776e6572604482015290519081900360640190fd5b6106a082610d27565b6106a981610d27565b600180546001600160a01b038481166001600160a01b03199283161790925560028054928416929091169190911790556006805460ff191690556106eb6110be565b6106f36107bd565b90506106fd6110be565b61070f8260000151836080015161090a565b905061071b8282610a97565b15801561072e575061072c82610b91565b155b6107695760405162461bcd60e51b815260040180806020018281038252603081526020018061113a6030913960400191505060405180910390fd5b61077282610cb5565b5061077b610dda565b50505050565b670de0b6b3a764000081565b60405180604001604052806009815260200168141c9a58d95199595960ba1b81525081565b600681565b61384081565b6107c56110be565b600160009054906101000a90046001600160a01b03166001600160a01b031663313ce5676040518163ffffffff1660e01b815260040160206040518083038186803b15801561081357600080fd5b505afa92505050801561083857506040513d602081101561083357600080fd5b505160015b610841576105d3565b60ff166080820152600160009054906101000a90046001600160a01b03166001600160a01b031663feaf968c6040518163ffffffff1660e01b815260040160a06040518083038186803b15801561089757600080fd5b505afa9250505080156108d957506040513d60a08110156108b757600080fd5b5080516020820151604083015160608401516080909401519293919290919060015b6108e2576105d3565b5069ffffffffffffffffffff90931684525060208301526040820152600160608201526105d3565b6109126110be565b60015460408051639a6fc8f560e01b815269ffffffffffffffffffff600019870116600482015290516001600160a01b0390921691639a6fc8f59160248082019260a092909190829003018186803b15801561096d57600080fd5b505afa9250505080156109af57506040513d60a081101561098d57600080fd5b5080516020820151604083015160608401516080909401519293919290919060015b6109b8576109e5565b5069ffffffffffffffffffff9093168452506020830152604082015260ff82166080820152600160608201525b92915050565b6109f36110ec565b600254604080516332e6aadb60e01b81526001600482015290516001600160a01b03909216916332e6aadb91602480820192606092909190829003018186803b158015610a3f57600080fd5b505afa925050508015610a7357506040513d6060811015610a5f57600080fd5b508051602082015160409092015190919060015b610a7c576105d3565b911515835260208301526040820152600160608201526105d3565b600192915050565b60008160600151610ab257506001610ae8565b60408201511580610ac65750428260400151115b15610ad357506001610ae8565b6020820151610ae457506001610ae8565b5060005b919050565b6006805482919060ff19166001836004811115610b0657fe5b02179055507f5c57579a8214fe4f710c1c56fa829f045b9fa6d225a744225a30c32188064d4e8160405180826004811115610b3d57fe5b60ff16815260200191505060405180910390a150565b6000613840610b6f836040015142610e2490919063ffffffff16565b1192915050565b600080610b868360200151610e66565b90506109e581610e7d565b50600190565b600080610baf8460200151856080015160ff16610eb8565b90506000610bc88460200151856080015160ff16610eb8565b90506000610bd68383610f01565b90506000610be48484610f17565b90506000610c2082610c14670de0b6b3a7640000610c08838863ffffffff610e2416565b9063ffffffff610f2716565b9063ffffffff610f8016565b6706f05b59d3b200001098975050505050505050565b600080610c4e8460200151856080015160ff16610eb8565b90506000610c5f8460200151610e66565b90506000610c6d8284610f01565b90506000610c7b8385610f17565b90506000610c9f83610c14670de0b6b3a7640000610c08868463ffffffff610e2416565b66b1a2bc2ec50000101598975050505050505050565b600080610b868360200151846080015160ff16610eb8565b6000610cd882610a9f565b80610ce75750610ce782610b53565b80610cf75750610cf78484610a97565b80610d065750610d0684610b91565b15610d1357506000610d20565b610d1d8483610c36565b90505b9392505050565b6001600160a01b038116610d82576040805162461bcd60e51b815260206004820152601e60248201527f4163636f756e742063616e6e6f74206265207a65726f20616464726573730000604482015290519081900360640190fd5b803b80610dd6576040805162461bcd60e51b815260206004820181905260248201527f4163636f756e7420636f64652073697a652063616e6e6f74206265207a65726f604482015290519081900360640190fd5b5050565b600080546040516001600160a01b03909116907f8be0079c531659141344cd1fd0a4f28419497f9722a3daafe3b4186f6b6457e0908390a3600080546001600160a01b0319169055565b6000610d2083836040518060400160405280601e81526020017f536166654d6174683a207375627472616374696f6e206f766572666c6f770000815250610fc2565b60006109e58264e8d4a5100063ffffffff610f2716565b60058190556040805182815290517f4d29de21de555af78a62fc82dd4bc05e9ae5b0660a37f04729527e0f22780cd39181900360200190a150565b60008060128310610ee157610eda846011198501600a0a63ffffffff610f8016565b9050610d20565b6012831015610d2057610d1d846012859003600a0a63ffffffff610f2716565b6000818310610f105781610d20565b5090919050565b600081831015610f105781610d20565b600082610f36575060006109e5565b82820282848281610f4357fe5b0414610d205760405162461bcd60e51b81526004018080602001828103825260218152602001806111196021913960400191505060405180910390fd5b6000610d2083836040518060400160405280601a81526020017f536166654d6174683a206469766973696f6e206279207a65726f000000000000815250611059565b600081848411156110515760405162461bcd60e51b81526004018080602001828103825283818151815260200191508051906020019080838360005b83811015611016578181015183820152602001610ffe565b50505050905090810190601f1680156110435780820380516001836020036101000a031916815260200191505b509250505060405180910390fd5b505050900390565b600081836110a85760405162461bcd60e51b8152602060048201818152835160248401528351909283926044909101919085019080838360008315611016578181015183820152602001610ffe565b5060008385816110b457fe5b0495945050505050565b6040805160a08101825260008082526020820181905291810182905260608101829052608081019190915290565b60405180608001604052806000151581526020016000815260200160008152602001600015158152509056fe536166654d6174683a206d756c7469706c69636174696f6e206f766572666c6f775072696365466565643a20436861696e6c696e6b206d75737420626520776f726b696e6720616e642063757272656e74a26469706673582212206fb605f4f099655e0aa50f8edaa40b2a3b56c663c15e319bd0a10561ab8e6ba064736f6c634300060b0033",
    "sourcePath": "/Users/robertanderson/Projects/ew/liqudity/afrr/packages/contracts/contracts/PriceFeed.sol",
    "compiler": {
        "name": "solc",
        "version": "0.6.11+commit.5ef660b1"
    },
    "functionHashes": {
        "DECIMAL_PRECISION()": "a20baee6",
        "ETHUSD_TELLOR_REQ_ID()": "5f42caf8",
        "MAX_PRICE_DEVIATION_FROM_PREVIOUS_ROUND()": "58a6aa88",
        "MAX_PRICE_DIFFERENCE_BETWEEN_ORACLES()": "45079cb4",
        "NAME()": "a3f4df7e",
        "TARGET_DIGITS()": "1be5c92f",
        "TELLOR_DIGITS()": "ebf8e6c6",
        "TIMEOUT()": "f56f48f2",
        "fetchPrice()": "0fdb11cf",
        "isOwner()": "8f32d59b",
        "lastGoodPrice()": "0490be83",
        "owner()": "8da5cb5b",
        "priceAggregator()": "3078fff5",
        "setAddresses(address,address)": "90107afe",
        "status()": "200d2ed2",
        "tellorCaller()": "7c61e3bf"
    },
    "gasEstimates": {
        "creation": {
            "codeDepositCost": "902200",
            "executionCost": "23303",
            "totalCost": "925503"
        },
        "external": {
            "DECIMAL_PRECISION()": "220",
            "ETHUSD_TELLOR_REQ_ID()": "287",
            "MAX_PRICE_DEVIATION_FROM_PREVIOUS_ROUND()": "265",
            "MAX_PRICE_DIFFERENCE_BETWEEN_ORACLES()": "243",
            "NAME()": "infinite",
            "TARGET_DIGITS()": "266",
            "TELLOR_DIGITS()": "264",
            "TIMEOUT()": "286",
            "fetchPrice()": "infinite",
            "isOwner()": "1094",
            "lastGoodPrice()": "1022",
            "owner()": "1082",
            "priceAggregator()": "1060",
            "setAddresses(address,address)": "infinite",
            "status()": "1133",
            "tellorCaller()": "1060"
        },
        "internal": {
            "_badChainlinkResponse(struct PriceFeed.ChainlinkResponse memory)": "infinite",
            "_bothOraclesLiveAndUnbrokenAndSimilarPrice(struct PriceFeed.ChainlinkResponse memory,struct PriceFeed.ChainlinkResponse memory,struct PriceFeed.TellorResponse memory)": "infinite",
            "_bothOraclesSimilarPrice(struct PriceFeed.ChainlinkResponse memory,struct PriceFeed.TellorResponse memory)": "infinite",
            "_chainlinkIsBroken(struct PriceFeed.ChainlinkResponse memory,struct PriceFeed.ChainlinkResponse memory)": "22",
            "_chainlinkIsFrozen(struct PriceFeed.ChainlinkResponse memory)": "17",
            "_chainlinkPriceChangeAboveMax(struct PriceFeed.ChainlinkResponse memory,struct PriceFeed.ChainlinkResponse memory)": "infinite",
            "_changeStatus(enum PriceFeed.Status)": "infinite",
            "_getCurrentChainlinkResponse()": "infinite",
            "_getCurrentTellorResponse()": "infinite",
            "_getPrevChainlinkResponse(uint80,uint8)": "infinite",
            "_scaleChainlinkPriceByDigits(uint256,uint256)": "infinite",
            "_scaleTellorPriceByDigits(uint256)": "infinite",
            "_storeChainlinkPrice(struct PriceFeed.ChainlinkResponse memory)": "infinite",
            "_storePrice(uint256)": "infinite",
            "_storeTellorPrice(struct PriceFeed.TellorResponse memory)": "infinite",
            "_tellorIsBroken(struct PriceFeed.TellorResponse memory)": "infinite",
            "_tellorIsFrozen(struct PriceFeed.TellorResponse memory)": "infinite"
        }
    }
}