{
  "_format": "hh-sol-artifact-1",
  "contractName": "ChainLinkBypass",
  "sourceName": "contracts/ChainLinkBypass.sol",
  "abi": [
    {
      "inputs": [
        {
          "internalType": "address",
          "name": "_tellorMasterAddress",
          "type": "address"
        },
        {
          "internalType": "uint256",
          "name": "_tellorRequestId",
          "type": "uint256"
        }
      ],
      "stateMutability": "nonpayable",
      "type": "constructor"
    },
    {
      "inputs": [],
      "name": "DECIMAL_PRECISION",
      "outputs": [
        {
          "internalType": "uint256",
          "name": "",
          "type": "uint256"
        }
      ],
      "stateMutability": "view",
      "type": "function"
    },
    {
      "inputs": [],
      "name": "TELLOR_DIGITS",
      "outputs": [
        {
          "internalType": "uint8",
          "name": "",
          "type": "uint8"
        }
      ],
      "stateMutability": "view",
      "type": "function"
    },
    {
      "inputs": [],
      "name": "decimals",
      "outputs": [
        {
          "internalType": "uint8",
          "name": "",
          "type": "uint8"
        }
      ],
      "stateMutability": "view",
      "type": "function"
    },
    {
      "inputs": [],
      "name": "description",
      "outputs": [
        {
          "internalType": "string",
          "name": "",
          "type": "string"
        }
      ],
      "stateMutability": "view",
      "type": "function"
    },
    {
      "inputs": [
        {
          "internalType": "uint80",
          "name": "_roundId",
          "type": "uint80"
        }
      ],
      "name": "getRoundData",
      "outputs": [
        {
          "internalType": "uint80",
          "name": "roundId",
          "type": "uint80"
        },
        {
          "internalType": "int256",
          "name": "answer",
          "type": "int256"
        },
        {
          "internalType": "uint256",
          "name": "startedAt",
          "type": "uint256"
        },
        {
          "internalType": "uint256",
          "name": "updatedAt",
          "type": "uint256"
        },
        {
          "internalType": "uint80",
          "name": "answeredInRound",
          "type": "uint80"
        }
      ],
      "stateMutability": "view",
      "type": "function"
    },
    {
      "inputs": [],
      "name": "latestAnswer",
      "outputs": [
        {
          "internalType": "uint256",
          "name": "",
          "type": "uint256"
        }
      ],
      "stateMutability": "view",
      "type": "function"
    },
    {
      "inputs": [],
      "name": "latestRoundData",
      "outputs": [
        {
          "internalType": "uint80",
          "name": "roundId",
          "type": "uint80"
        },
        {
          "internalType": "int256",
          "name": "answer",
          "type": "int256"
        },
        {
          "internalType": "uint256",
          "name": "startedAt",
          "type": "uint256"
        },
        {
          "internalType": "uint256",
          "name": "updatedAt",
          "type": "uint256"
        },
        {
          "internalType": "uint80",
          "name": "answeredInRound",
          "type": "uint80"
        }
      ],
      "stateMutability": "view",
      "type": "function"
    },
    {
      "inputs": [],
      "name": "tellor",
      "outputs": [
        {
          "internalType": "contract ITellor",
          "name": "",
          "type": "address"
        }
      ],
      "stateMutability": "view",
      "type": "function"
    },
    {
      "inputs": [],
      "name": "tellorRequestId",
      "outputs": [
        {
          "internalType": "uint256",
          "name": "",
          "type": "uint256"
        }
      ],
      "stateMutability": "view",
      "type": "function"
    },
    {
      "inputs": [],
      "name": "version",
      "outputs": [
        {
          "internalType": "uint256",
          "name": "",
          "type": "uint256"
        }
      ],
      "stateMutability": "view",
      "type": "function"
    }
  ],
  "bytecode": "0x608060405234801561001057600080fd5b506040516107843803806107848339818101604052604081101561003357600080fd5b50805160209091015161004e826001600160e01b0361007716565b600080546001600160a01b0319166001600160a01b03939093169290921790915560015561012a565b6001600160a01b0381166100d2576040805162461bcd60e51b815260206004820152601e60248201527f4163636f756e742063616e6e6f74206265207a65726f20616464726573730000604482015290519081900360640190fd5b803b80610126576040805162461bcd60e51b815260206004820181905260248201527f4163636f756e7420636f64652073697a652063616e6e6f74206265207a65726f604482015290519081900360640190fd5b5050565b61064b806101396000396000f3fe608060405234801561001057600080fd5b506004361061009e5760003560e01c80637c2e2443116100665780637c2e2443146101845780639a6fc8f51461018c578063a20baee6146101ee578063ebf8e6c6146101f6578063feaf968c146101fe5761009e565b80631959ad5b146100a3578063313ce567146100c757806350d25bcd146100e557806354fd4d50146100ff5780637284e41614610107575b600080fd5b6100ab610206565b604080516001600160a01b039092168252519081900360200190f35b6100cf610215565b6040805160ff9092168252519081900360200190f35b6100ed61021a565b60408051918252519081900360200190f35b6100ed61028b565b61010f610290565b6040805160208082528351818301528351919283929083019185019080838360005b83811015610149578181015183820152602001610131565b50505050905090810190601f1680156101765780820380516001836020036101000a031916815260200191505b509250505060405180910390f35b6100ed6102b4565b6101b2600480360360208110156101a257600080fd5b50356001600160501b03166102ba565b604080516001600160501b0396871681526020810195909552848101939093526060840191909152909216608082015290519081900360a00190f35b6100ed6103f8565b6100cf610404565b6101b2610409565b6000546001600160a01b031681565b600690565b600080306001600160a01b031663feaf968c6040518163ffffffff1660e01b815260040160a06040518083038186803b15801561025657600080fd5b505afa15801561026a573d6000803e3d6000fd5b505050506040513d60a081101561028057600080fd5b506020015191505090565b600190565b60408051808201909152600a81526922abaa10179022a2aaa960b11b602082015290565b60015481565b6000805460018054839283928392839283926001600160a01b03909116916377fbb663916102f8906001600160501b038c169063ffffffff61053516565b6040518363ffffffff1660e01b8152600401808381526020018281526020019250505060206040518083038186803b15801561033357600080fd5b505afa158015610347573d6000803e3d6000fd5b505050506040513d602081101561035d57600080fd5b505160008054600154604080516393fa491560e01b81526004810192909252602482018590525193945091926001600160a01b03909116916393fa4915916044808301926020929190829003018186803b1580156103ba57600080fd5b505afa1580156103ce573d6000803e3d6000fd5b505050506040513d60208110156103e457600080fd5b505197989196508695508894509092505050565b670de0b6b3a764000081565b600681565b6000806000806000806000809054906101000a90046001600160a01b03166001600160a01b03166346eee1c46001546040518263ffffffff1660e01b81526004018082815260200191505060206040518083038186803b15801561046c57600080fd5b505afa158015610480573d6000803e3d6000fd5b505050506040513d602081101561049657600080fd5b505160408051639a6fc8f560e01b81526001600160501b038316600482015290519192503091639a6fc8f59160248082019260a092909190829003018186803b1580156104e257600080fd5b505afa1580156104f6573d6000803e3d6000fd5b505050506040513d60a081101561050c57600080fd5b508051602082015160408301516060840151608090940151929a91995097509195509350915050565b600061057783836040518060400160405280601e81526020017f536166654d6174683a207375627472616374696f6e206f766572666c6f77000081525061057e565b9392505050565b6000818484111561060d5760405162461bcd60e51b81526004018080602001828103825283818151815260200191508051906020019080838360005b838110156105d25781810151838201526020016105ba565b50505050905090810190601f1680156105ff5780820380516001836020036101000a031916815260200191505b509250505060405180910390fd5b50505090039056fea26469706673582212204ab0b6259c823308696667c2815e0d9ff31427c36aa8c1f047c398a52034c9ce64736f6c634300060b0033",
  "linkReferences": {},
  "deployedLinkReferences": {}
}