{
  "_format": "hh-sol-artifact-1",
  "contractName": "PriceConsumerV3",
  "sourceName": "contracts/ChainLinkBypass-ClientExample.sol",
  "abi": [
    {
      "inputs": [],
      "stateMutability": "nonpayable",
      "type": "constructor"
    },
    {
      "inputs": [],
      "name": "decimals",
      "outputs": [
        {
          "internalType": "uint8",
          "name": "",
          "type": "uint8"
        }
      ],
      "stateMutability": "view",
      "type": "function"
    },
    {
      "inputs": [],
      "name": "description",
      "outputs": [
        {
          "internalType": "string",
          "name": "",
          "type": "string"
        }
      ],
      "stateMutability": "view",
      "type": "function"
    },
    {
      "inputs": [],
      "name": "getLatestPrice",
      "outputs": [
        {
          "internalType": "int256",
          "name": "",
          "type": "int256"
        }
      ],
      "stateMutability": "view",
      "type": "function"
    },
    {
      "inputs": [],
      "name": "version",
      "outputs": [
        {
          "internalType": "uint256",
          "name": "",
          "type": "uint256"
        }
      ],
      "stateMutability": "view",
      "type": "function"
    }
  ],
  "bytecode": "0x608060405234801561001057600080fd5b50600080546001600160a01b031916738a753747a1fa494ec906ce90e9f37563a8af630e1790556103b2806100466000396000f3fe608060405234801561001057600080fd5b506004361061004c5760003560e01c8063313ce5671461005157806354fd4d501461006f5780637284e416146100895780638e15f47314610106575b600080fd5b61005961010e565b6040805160ff9092168252519081900360200190f35b610077610185565b60408051918252519081900360200190f35b6100916101ca565b6040805160208082528351818301528351919283929083019185019080838360005b838110156100cb5781810151838201526020016100b3565b50505050905090810190601f1680156100f85780820380516001836020036101000a031916815260200191505b509250505060405180910390f35b610077610302565b600080546040805163313ce56760e01b8152905183926001600160a01b03169163313ce567916004808301926020929190829003018186803b15801561015357600080fd5b505afa158015610167573d6000803e3d6000fd5b505050506040513d602081101561017d57600080fd5b505191505090565b600080546040805163054fd4d560e41b8152905183926001600160a01b0316916354fd4d50916004808301926020929190829003018186803b15801561015357600080fd5b6000805460408051633942720b60e11b8152905160609384936001600160a01b031692637284e4169260048083019392829003018186803b15801561020e57600080fd5b505afa158015610222573d6000803e3d6000fd5b505050506040513d6000823e601f3d908101601f19168201604052602081101561024b57600080fd5b810190808051604051939291908464010000000082111561026b57600080fd5b90830190602082018581111561028057600080fd5b825164010000000081118282018810171561029a57600080fd5b82525081516020918201929091019080838360005b838110156102c75781810151838201526020016102af565b50505050905090810190601f1680156102f45780820380516001836020036101000a031916815260200191505b506040525091935050505090565b6000805460408051633fabe5a360e21b8152905183926001600160a01b03169163feaf968c9160048083019260a0929190829003018186803b15801561034757600080fd5b505afa15801561035b573d6000803e3d6000fd5b505050506040513d60a081101561037157600080fd5b50602001519150509056fea264697066735822122058adc778fd3aad80acd4c1d40d41efc6b5bc69f61138093c237c566f807127e964736f6c634300060b0033",
  "linkReferences": {},
  "deployedLinkReferences": {}
}