{
	"data": {
		"bytecode": {
			"linkReferences": {},
			"object": "608060405234801561001057600080fd5b50336000806101000a81548173ffffffffffffffffffffffffffffffffffffffff021916908373ffffffffffffffffffffffffffffffffffffffff1602179055503373ffffffffffffffffffffffffffffffffffffffff16600073ffffffffffffffffffffffffffffffffffffffff167f8be0079c531659141344cd1fd0a4f28419497f9722a3daafe3b4186f6b6457e060405160405180910390a3611b5d806100bb6000396000f3fe608060405234801561001057600080fd5b50600436106101005760003560e01c80637c61e3bf11610097578063a20baee611610066578063a20baee614610349578063a3f4df7e14610367578063ebf8e6c6146103ea578063f56f48f21461040857610100565b80637c61e3bf1461022f5780638da5cb5b146102795780638f32d59b146102c357806390107afe146102e557610100565b80633078fff5116100d35780633078fff51461018b57806345079cb4146101d557806358a6aa88146101f35780635f42caf81461021157610100565b80630490be83146101055780630fdb11cf146101235780631be5c92f14610141578063200d2ed21461015f575b600080fd5b61010d610426565b6040518082815260200191505060405180910390f35b61012b61042c565b6040518082815260200191505060405180910390f35b6101496109bc565b6040518082815260200191505060405180910390f35b6101676109c1565b6040518082600481111561017757fe5b60ff16815260200191505060405180910390f35b6101936109d4565b604051808273ffffffffffffffffffffffffffffffffffffffff1673ffffffffffffffffffffffffffffffffffffffff16815260200191505060405180910390f35b6101dd6109fa565b6040518082815260200191505060405180910390f35b6101fb610a05565b6040518082815260200191505060405180910390f35b610219610a11565b6040518082815260200191505060405180910390f35b610237610a16565b604051808273ffffffffffffffffffffffffffffffffffffffff1673ffffffffffffffffffffffffffffffffffffffff16815260200191505060405180910390f35b610281610a3c565b604051808273ffffffffffffffffffffffffffffffffffffffff1673ffffffffffffffffffffffffffffffffffffffff16815260200191505060405180910390f35b6102cb610a65565b604051808215151515815260200191505060405180910390f35b610347600480360360408110156102fb57600080fd5b81019080803573ffffffffffffffffffffffffffffffffffffffff169060200190929190803573ffffffffffffffffffffffffffffffffffffffff169060200190929190505050610abc565b005b610351610ca6565b6040518082815260200191505060405180910390f35b61036f610cb2565b6040518080602001828103825283818151815260200191508051906020019080838360005b838110156103af578082015181840152602081019050610394565b50505050905090810190601f1680156103dc5780820380516001836020036101000a031916815260200191505b509250505060405180910390f35b6103f2610ceb565b6040518082815260200191505060405180910390f35b610410610cf0565b6040518082815260200191505060405180910390f35b60055481565b6000610436611a6a565b61043e610cf6565b9050610448611a6a565b61045a82600001518360800151610ede565b9050610464611aaa565b61046c611046565b90506000600481111561047b57fe5b600660009054906101000a900460ff16600481111561049657fe5b1415610641576104a68383611155565b15610512576104b481611178565b156104d0576104c360026111d0565b60055493505050506109b9565b6104d98161123b565b156104f5576104e860016111d0565b60055493505050506109b9565b6104ff60016111d0565b6105088161125f565b93505050506109b9565b61051b83611283565b1561057d5761052981611178565b156105455761053860046111d0565b60055493505050506109b9565b61054f60036111d0565b6105588161123b565b1561056a5760055493505050506109b9565b6105738161125f565b93505050506109b9565b61058783836112a7565b156106155761059581611178565b156105b1576105a460026111d0565b60055493505050506109b9565b6105ba8161123b565b156105d6576105c960016111d0565b60055493505050506109b9565b6105e08382611351565b156105f8576105ee836113f3565b93505050506109b9565b61060260016111d0565b61060b8161125f565b93505050506109b9565b61061e81611178565b1561062e5761062d60046111d0565b5b610637836113f3565b93505050506109b9565b6001600481111561064e57fe5b600660009054906101000a900460ff16600481111561066957fe5b14156106ef5761067a83838361141f565b1561069c5761068960006111d0565b610692836113f3565b93505050506109b9565b6106a581611178565b156106c1576106b460026111d0565b60055493505050506109b9565b6106ca8161123b565b156106dc5760055493505050506109b9565b6106e58161125f565b93505050506109b9565b600260048111156106fc57fe5b600660009054906101000a900460ff16600481111561071757fe5b14156107575761072883838361141f565b1561074a5761073760006111d0565b610740836113f3565b93505050506109b9565b60055493505050506109b9565b6003600481111561076457fe5b600660009054906101000a900460ff16600481111561077f57fe5b14156108e15761078f8383611155565b156107f15761079d81611178565b156107b9576107ac60026111d0565b60055493505050506109b9565b6107c360016111d0565b6107cc8161123b565b156107de5760055493505050506109b9565b6107e78161125f565b93505050506109b9565b6107fa83611283565b156108525761080881611178565b156108245761081760046111d0565b60055493505050506109b9565b61082d8161123b565b1561083f5760055493505050506109b9565b6108488161125f565b93505050506109b9565b61085b81611178565b1561087d5761086a60046111d0565b610873836113f3565b93505050506109b9565b6108868161123b565b156108985760055493505050506109b9565b6108a28382611351565b156108c4576108b160006111d0565b6108ba836113f3565b93505050506109b9565b6108ce60016111d0565b6108d78161125f565b93505050506109b9565b6004808111156108ed57fe5b600660009054906101000a900460ff16600481111561090857fe5b14156109b5576109188383611155565b156109345761092760026111d0565b60055493505050506109b9565b61093d83611283565b1561094f5760055493505050506109b9565b61095a83838361141f565b1561097c5761096960006111d0565b610972836113f3565b93505050506109b9565b61098683836112a7565b156109a25761099560026111d0565b60055493505050506109b9565b6109ab836113f3565b93505050506109b9565b5050505b90565b601281565b600660009054906101000a900460ff1681565b600160009054906101000a900473ffffffffffffffffffffffffffffffffffffffff1681565b66b1a2bc2ec5000081565b6706f05b59d3b2000081565b600181565b600260009054906101000a900473ffffffffffffffffffffffffffffffffffffffff1681565b60008060009054906101000a900473ffffffffffffffffffffffffffffffffffffffff16905090565b60008060009054906101000a900473ffffffffffffffffffffffffffffffffffffffff1673ffffffffffffffffffffffffffffffffffffffff163373ffffffffffffffffffffffffffffffffffffffff1614905090565b610ac4610a65565b610b36576040517f08c379a00000000000000000000000000000000000000000000000000000000081526004018080602001828103825260208152602001807f4f776e61626c653a2063616c6c6572206973206e6f7420746865206f776e657281525060200191505060405180910390fd5b610b3f8261147d565b610b488161147d565b81600160006101000a81548173ffffffffffffffffffffffffffffffffffffffff021916908373ffffffffffffffffffffffffffffffffffffffff16021790555080600260006101000a81548173ffffffffffffffffffffffffffffffffffffffff021916908373ffffffffffffffffffffffffffffffffffffffff1602179055506000600660006101000a81548160ff02191690836004811115610be957fe5b0217905550610bf6611a6a565b610bfe610cf6565b9050610c08611a6a565b610c1a82600001518360800151610ede565b9050610c268282611155565b158015610c395750610c3782611283565b155b610c8e576040517f08c379a0000000000000000000000000000000000000000000000000000000008152600401808060200182810382526030815260200180611af86030913960400191505060405180910390fd5b610c97826113f3565b50610ca06115a0565b50505050565b670de0b6b3a764000081565b6040518060400160405280600981526020017f507269636546656564000000000000000000000000000000000000000000000081525081565b600681565b61384081565b610cfe611a6a565b600160009054906101000a900473ffffffffffffffffffffffffffffffffffffffff1673ffffffffffffffffffffffffffffffffffffffff1663313ce5676040518163ffffffff1660e01b815260040160206040518083038186803b158015610d6657600080fd5b505afa925050508015610d9a57506040513d6020811015610d8657600080fd5b810190808051906020019092919050505060015b610da657809050610edb565b80826080019060ff16908160ff168152505050600160009054906101000a900473ffffffffffffffffffffffffffffffffffffffff1673ffffffffffffffffffffffffffffffffffffffff1663feaf968c6040518163ffffffff1660e01b815260040160a06040518083038186803b158015610e2157600080fd5b505afa925050508015610e7d57506040513d60a0811015610e4157600080fd5b81019080805190602001909291908051906020019092919080519060200190929190805190602001909291908051906020019092919050505060015b610e8957809050610edb565b84866000019069ffffffffffffffffffff16908169ffffffffffffffffffff16815250508386602001818152505081866040018181525050600186606001901515908115158152505085955050505050505b90565b610ee6611a6a565b600160009054906101000a900473ffffffffffffffffffffffffffffffffffffffff1673ffffffffffffffffffffffffffffffffffffffff16639a6fc8f5600185036040518263ffffffff1660e01b8152600401808269ffffffffffffffffffff1669ffffffffffffffffffff16815260200191505060a06040518083038186803b158015610f7457600080fd5b505afa925050508015610fd057506040513d60a0811015610f9457600080fd5b81019080805190602001909291908051906020019092919080519060200190929190805190602001909291908051906020019092919050505060015b610fdc57809050611040565b84866000019069ffffffffffffffffffff16908169ffffffffffffffffffff1681525050838660200181815250508186604001818152505086866080019060ff16908160ff1681525050600186606001901515908115158152505085955050505050505b92915050565b61104e611aaa565b600260009054906101000a900473ffffffffffffffffffffffffffffffffffffffff1673ffffffffffffffffffffffffffffffffffffffff166332e6aadb60016040518263ffffffff1660e01b81526004018082815260200191505060606040518083038186803b1580156110c257600080fd5b505afa92505050801561110a57506040513d60608110156110e257600080fd5b8101908080519060200190929190805190602001909291908051906020019092919050505060015b61111657809050611152565b82846000019015159081151581525050818460200181815250508084604001818152505060018460600190151590811515815250508393505050505b90565b60006111608361165f565b80611170575061116f8261165f565b5b905092915050565b6000816060015161118c57600190506111cb565b6000826040015114806111a25750428260400151115b156111b057600190506111cb565b6000826020015114156111c657600190506111cb565b600090505b919050565b80600660006101000a81548160ff021916908360048111156111ee57fe5b02179055507f5c57579a8214fe4f710c1c56fa829f045b9fa6d225a744225a30c32188064d4e816040518082600481111561122557fe5b60ff16815260200191505060405180910390a150565b60006138406112578360400151426116d890919063ffffffff16565b119050919050565b60008061126f8360200151611722565b905061127a81611745565b80915050919050565b600061384061129f8360400151426116d890919063ffffffff16565b119050919050565b6000806112bf8460200151856080015160ff16611786565b905060006112d88460200151856080015160ff16611786565b905060006112e683836117e1565b905060006112f484846117fa565b9050600061133782611329670de0b6b3a764000061131b87876116d890919063ffffffff16565b61181490919063ffffffff16565b61189a90919063ffffffff16565b90506706f05b59d3b2000081119550505050505092915050565b6000806113698460200151856080015160ff16611786565b9050600061137a8460200151611722565b9050600061138882846117e1565b9050600061139683856117fa565b905060006113d9836113cb670de0b6b3a76400006113bd87876116d890919063ffffffff16565b61181490919063ffffffff16565b61189a90919063ffffffff16565b905066b1a2bc2ec500008111159550505050505092915050565b60008061140b8360200151846080015160ff16611786565b905061141681611745565b80915050919050565b600061142a82611178565b8061143a57506114398261123b565b5b8061144b575061144a8484611155565b5b8061145b575061145a84611283565b5b156114695760009050611476565b6114738483611351565b90505b9392505050565b600073ffffffffffffffffffffffffffffffffffffffff168173ffffffffffffffffffffffffffffffffffffffff161415611520576040517f08c379a000000000000000000000000000000000000000000000000000000000815260040180806020018281038252601e8152602001807f4163636f756e742063616e6e6f74206265207a65726f2061646472657373000081525060200191505060405180910390fd5b6000813b90506000811161159c576040517f08c379a00000000000000000000000000000000000000000000000000000000081526004018080602001828103825260208152602001807f4163636f756e7420636f64652073697a652063616e6e6f74206265207a65726f81525060200191505060405180910390fd5b5050565b600073ffffffffffffffffffffffffffffffffffffffff166000809054906101000a900473ffffffffffffffffffffffffffffffffffffffff1673ffffffffffffffffffffffffffffffffffffffff167f8be0079c531659141344cd1fd0a4f28419497f9722a3daafe3b4186f6b6457e060405160405180910390a360008060006101000a81548173ffffffffffffffffffffffffffffffffffffffff021916908373ffffffffffffffffffffffffffffffffffffffff160217905550565b6000816060015161167357600190506116d3565b6000826000015169ffffffffffffffffffff16141561169557600190506116d3565b6000826040015114806116ab5750428260400151115b156116b957600190506116d3565b60008260200151136116ce57600190506116d3565b600090505b919050565b600061171a83836040518060400160405280601e81526020017f536166654d6174683a207375627472616374696f6e206f766572666c6f7700008152506118e4565b905092915050565b600061173e6006601203600a0a8361181490919063ffffffff16565b9050919050565b806005819055507f4d29de21de555af78a62fc82dd4bc05e9ae5b0660a37f04729527e0f22780cd3816040518082815260200191505060405180910390a150565b600080601283106117b1576117aa60128403600a0a8561189a90919063ffffffff16565b90506117d7565b60128310156117d6576117d383601203600a0a8561181490919063ffffffff16565b90505b5b8091505092915050565b60008183106117f057816117f2565b825b905092915050565b60008183101561180a578161180c565b825b905092915050565b6000808314156118275760009050611894565b600082840290508284828161183857fe5b041461188f576040517f08c379a0000000000000000000000000000000000000000000000000000000008152600401808060200182810382526021815260200180611ad76021913960400191505060405180910390fd5b809150505b92915050565b60006118dc83836040518060400160405280601a81526020017f536166654d6174683a206469766973696f6e206279207a65726f0000000000008152506119a4565b905092915050565b6000838311158290611991576040517f08c379a00000000000000000000000000000000000000000000000000000000081526004018080602001828103825283818151815260200191508051906020019080838360005b8381101561195657808201518184015260208101905061193b565b50505050905090810190601f1680156119835780820380516001836020036101000a031916815260200191505b509250505060405180910390fd5b5060008385039050809150509392505050565b60008083118290611a50576040517f08c379a00000000000000000000000000000000000000000000000000000000081526004018080602001828103825283818151815260200191508051906020019080838360005b83811015611a155780820151818401526020810190506119fa565b50505050905090810190601f168015611a425780820380516001836020036101000a031916815260200191505b509250505060405180910390fd5b506000838581611a5c57fe5b049050809150509392505050565b6040518060a00160405280600069ffffffffffffffffffff1681526020016000815260200160008152602001600015158152602001600060ff1681525090565b60405180608001604052806000151581526020016000815260200160008152602001600015158152509056fe536166654d6174683a206d756c7469706c69636174696f6e206f766572666c6f775072696365466565643a20436861696e6c696e6b206d75737420626520776f726b696e6720616e642063757272656e74a2646970667358221220b4e61c1f5fc32ce0a840385f4f9b840a3f642c5e79c2f4ed936c3e4dd9711dfd64736f6c634300060b0033",
			"opcodes": "PUSH1 0x80 PUSH1 0x40 MSTORE CALLVALUE DUP1 ISZERO PUSH2 0x10 JUMPI PUSH1 0x0 DUP1 REVERT JUMPDEST POP CALLER PUSH1 0x0 DUP1 PUSH2 0x100 EXP DUP2 SLOAD DUP2 PUSH20 0xFFFFFFFFFFFFFFFFFFFFFFFFFFFFFFFFFFFFFFFF MUL NOT AND SWAP1 DUP4 PUSH20 0xFFFFFFFFFFFFFFFFFFFFFFFFFFFFFFFFFFFFFFFF AND MUL OR SWAP1 SSTORE POP CALLER PUSH20 0xFFFFFFFFFFFFFFFFFFFFFFFFFFFFFFFFFFFFFFFF AND PUSH1 0x0 PUSH20 0xFFFFFFFFFFFFFFFFFFFFFFFFFFFFFFFFFFFFFFFF AND PUSH32 0x8BE0079C531659141344CD1FD0A4F28419497F9722A3DAAFE3B4186F6B6457E0 PUSH1 0x40 MLOAD PUSH1 0x40 MLOAD DUP1 SWAP2 SUB SWAP1 LOG3 PUSH2 0x1B5D DUP1 PUSH2 0xBB PUSH1 0x0 CODECOPY PUSH1 0x0 RETURN INVALID PUSH1 0x80 PUSH1 0x40 MSTORE CALLVALUE DUP1 ISZERO PUSH2 0x10 JUMPI PUSH1 0x0 DUP1 REVERT JUMPDEST POP PUSH1 0x4 CALLDATASIZE LT PUSH2 0x100 JUMPI PUSH1 0x0 CALLDATALOAD PUSH1 0xE0 SHR DUP1 PUSH4 0x7C61E3BF GT PUSH2 0x97 JUMPI DUP1 PUSH4 0xA20BAEE6 GT PUSH2 0x66 JUMPI DUP1 PUSH4 0xA20BAEE6 EQ PUSH2 0x349 JUMPI DUP1 PUSH4 0xA3F4DF7E EQ PUSH2 0x367 JUMPI DUP1 PUSH4 0xEBF8E6C6 EQ PUSH2 0x3EA JUMPI DUP1 PUSH4 0xF56F48F2 EQ PUSH2 0x408 JUMPI PUSH2 0x100 JUMP JUMPDEST DUP1 PUSH4 0x7C61E3BF EQ PUSH2 0x22F JUMPI DUP1 PUSH4 0x8DA5CB5B EQ PUSH2 0x279 JUMPI DUP1 PUSH4 0x8F32D59B EQ PUSH2 0x2C3 JUMPI DUP1 PUSH4 0x90107AFE EQ PUSH2 0x2E5 JUMPI PUSH2 0x100 JUMP JUMPDEST DUP1 PUSH4 0x3078FFF5 GT PUSH2 0xD3 JUMPI DUP1 PUSH4 0x3078FFF5 EQ PUSH2 0x18B JUMPI DUP1 PUSH4 0x45079CB4 EQ PUSH2 0x1D5 JUMPI DUP1 PUSH4 0x58A6AA88 EQ PUSH2 0x1F3 JUMPI DUP1 PUSH4 0x5F42CAF8 EQ PUSH2 0x211 JUMPI PUSH2 0x100 JUMP JUMPDEST DUP1 PUSH4 0x490BE83 EQ PUSH2 0x105 JUMPI DUP1 PUSH4 0xFDB11CF EQ PUSH2 0x123 JUMPI DUP1 PUSH4 0x1BE5C92F EQ PUSH2 0x141 JUMPI DUP1 PUSH4 0x200D2ED2 EQ PUSH2 0x15F JUMPI JUMPDEST PUSH1 0x0 DUP1 REVERT JUMPDEST PUSH2 0x10D PUSH2 0x426 JUMP JUMPDEST PUSH1 0x40 MLOAD DUP1 DUP3 DUP2 MSTORE PUSH1 0x20 ADD SWAP2 POP POP PUSH1 0x40 MLOAD DUP1 SWAP2 SUB SWAP1 RETURN JUMPDEST PUSH2 0x12B PUSH2 0x42C JUMP JUMPDEST PUSH1 0x40 MLOAD DUP1 DUP3 DUP2 MSTORE PUSH1 0x20 ADD SWAP2 POP POP PUSH1 0x40 MLOAD DUP1 SWAP2 SUB SWAP1 RETURN JUMPDEST PUSH2 0x149 PUSH2 0x9BC JUMP JUMPDEST PUSH1 0x40 MLOAD DUP1 DUP3 DUP2 MSTORE PUSH1 0x20 ADD SWAP2 POP POP PUSH1 0x40 MLOAD DUP1 SWAP2 SUB SWAP1 RETURN JUMPDEST PUSH2 0x167 PUSH2 0x9C1 JUMP JUMPDEST PUSH1 0x40 MLOAD DUP1 DUP3 PUSH1 0x4 DUP2 GT ISZERO PUSH2 0x177 JUMPI INVALID JUMPDEST PUSH1 0xFF AND DUP2 MSTORE PUSH1 0x20 ADD SWAP2 POP POP PUSH1 0x40 MLOAD DUP1 SWAP2 SUB SWAP1 RETURN JUMPDEST PUSH2 0x193 PUSH2 0x9D4 JUMP JUMPDEST PUSH1 0x40 MLOAD DUP1 DUP3 PUSH20 0xFFFFFFFFFFFFFFFFFFFFFFFFFFFFFFFFFFFFFFFF AND PUSH20 0xFFFFFFFFFFFFFFFFFFFFFFFFFFFFFFFFFFFFFFFF AND DUP2 MSTORE PUSH1 0x20 ADD SWAP2 POP POP PUSH1 0x40 MLOAD DUP1 SWAP2 SUB SWAP1 RETURN JUMPDEST PUSH2 0x1DD PUSH2 0x9FA JUMP JUMPDEST PUSH1 0x40 MLOAD DUP1 DUP3 DUP2 MSTORE PUSH1 0x20 ADD SWAP2 POP POP PUSH1 0x40 MLOAD DUP1 SWAP2 SUB SWAP1 RETURN JUMPDEST PUSH2 0x1FB PUSH2 0xA05 JUMP JUMPDEST PUSH1 0x40 MLOAD DUP1 DUP3 DUP2 MSTORE PUSH1 0x20 ADD SWAP2 POP POP PUSH1 0x40 MLOAD DUP1 SWAP2 SUB SWAP1 RETURN JUMPDEST PUSH2 0x219 PUSH2 0xA11 JUMP JUMPDEST PUSH1 0x40 MLOAD DUP1 DUP3 DUP2 MSTORE PUSH1 0x20 ADD SWAP2 POP POP PUSH1 0x40 MLOAD DUP1 SWAP2 SUB SWAP1 RETURN JUMPDEST PUSH2 0x237 PUSH2 0xA16 JUMP JUMPDEST PUSH1 0x40 MLOAD DUP1 DUP3 PUSH20 0xFFFFFFFFFFFFFFFFFFFFFFFFFFFFFFFFFFFFFFFF AND PUSH20 0xFFFFFFFFFFFFFFFFFFFFFFFFFFFFFFFFFFFFFFFF AND DUP2 MSTORE PUSH1 0x20 ADD SWAP2 POP POP PUSH1 0x40 MLOAD DUP1 SWAP2 SUB SWAP1 RETURN JUMPDEST PUSH2 0x281 PUSH2 0xA3C JUMP JUMPDEST PUSH1 0x40 MLOAD DUP1 DUP3 PUSH20 0xFFFFFFFFFFFFFFFFFFFFFFFFFFFFFFFFFFFFFFFF AND PUSH20 0xFFFFFFFFFFFFFFFFFFFFFFFFFFFFFFFFFFFFFFFF AND DUP2 MSTORE PUSH1 0x20 ADD SWAP2 POP POP PUSH1 0x40 MLOAD DUP1 SWAP2 SUB SWAP1 RETURN JUMPDEST PUSH2 0x2CB PUSH2 0xA65 JUMP JUMPDEST PUSH1 0x40 MLOAD DUP1 DUP3 ISZERO ISZERO ISZERO ISZERO DUP2 MSTORE PUSH1 0x20 ADD SWAP2 POP POP PUSH1 0x40 MLOAD DUP1 SWAP2 SUB SWAP1 RETURN JUMPDEST PUSH2 0x347 PUSH1 0x4 DUP1 CALLDATASIZE SUB PUSH1 0x40 DUP2 LT ISZERO PUSH2 0x2FB JUMPI PUSH1 0x0 DUP1 REVERT JUMPDEST DUP2 ADD SWAP1 DUP1 DUP1 CALLDATALOAD PUSH20 0xFFFFFFFFFFFFFFFFFFFFFFFFFFFFFFFFFFFFFFFF AND SWAP1 PUSH1 0x20 ADD SWAP1 SWAP3 SWAP2 SWAP1 DUP1 CALLDATALOAD PUSH20 0xFFFFFFFFFFFFFFFFFFFFFFFFFFFFFFFFFFFFFFFF AND SWAP1 PUSH1 0x20 ADD SWAP1 SWAP3 SWAP2 SWAP1 POP POP POP PUSH2 0xABC JUMP JUMPDEST STOP JUMPDEST PUSH2 0x351 PUSH2 0xCA6 JUMP JUMPDEST PUSH1 0x40 MLOAD DUP1 DUP3 DUP2 MSTORE PUSH1 0x20 ADD SWAP2 POP POP PUSH1 0x40 MLOAD DUP1 SWAP2 SUB SWAP1 RETURN JUMPDEST PUSH2 0x36F PUSH2 0xCB2 JUMP JUMPDEST PUSH1 0x40 MLOAD DUP1 DUP1 PUSH1 0x20 ADD DUP3 DUP2 SUB DUP3 MSTORE DUP4 DUP2 DUP2 MLOAD DUP2 MSTORE PUSH1 0x20 ADD SWAP2 POP DUP1 MLOAD SWAP1 PUSH1 0x20 ADD SWAP1 DUP1 DUP4 DUP4 PUSH1 0x0 JUMPDEST DUP4 DUP2 LT ISZERO PUSH2 0x3AF JUMPI DUP1 DUP3 ADD MLOAD DUP2 DUP5 ADD MSTORE PUSH1 0x20 DUP2 ADD SWAP1 POP PUSH2 0x394 JUMP JUMPDEST POP POP POP POP SWAP1 POP SWAP1 DUP2 ADD SWAP1 PUSH1 0x1F AND DUP1 ISZERO PUSH2 0x3DC JUMPI DUP1 DUP3 SUB DUP1 MLOAD PUSH1 0x1 DUP4 PUSH1 0x20 SUB PUSH2 0x100 EXP SUB NOT AND DUP2 MSTORE PUSH1 0x20 ADD SWAP2 POP JUMPDEST POP SWAP3 POP POP POP PUSH1 0x40 MLOAD DUP1 SWAP2 SUB SWAP1 RETURN JUMPDEST PUSH2 0x3F2 PUSH2 0xCEB JUMP JUMPDEST PUSH1 0x40 MLOAD DUP1 DUP3 DUP2 MSTORE PUSH1 0x20 ADD SWAP2 POP POP PUSH1 0x40 MLOAD DUP1 SWAP2 SUB SWAP1 RETURN JUMPDEST PUSH2 0x410 PUSH2 0xCF0 JUMP JUMPDEST PUSH1 0x40 MLOAD DUP1 DUP3 DUP2 MSTORE PUSH1 0x20 ADD SWAP2 POP POP PUSH1 0x40 MLOAD DUP1 SWAP2 SUB SWAP1 RETURN JUMPDEST PUSH1 0x5 SLOAD DUP2 JUMP JUMPDEST PUSH1 0x0 PUSH2 0x436 PUSH2 0x1A6A JUMP JUMPDEST PUSH2 0x43E PUSH2 0xCF6 JUMP JUMPDEST SWAP1 POP PUSH2 0x448 PUSH2 0x1A6A JUMP JUMPDEST PUSH2 0x45A DUP3 PUSH1 0x0 ADD MLOAD DUP4 PUSH1 0x80 ADD MLOAD PUSH2 0xEDE JUMP JUMPDEST SWAP1 POP PUSH2 0x464 PUSH2 0x1AAA JUMP JUMPDEST PUSH2 0x46C PUSH2 0x1046 JUMP JUMPDEST SWAP1 POP PUSH1 0x0 PUSH1 0x4 DUP2 GT ISZERO PUSH2 0x47B JUMPI INVALID JUMPDEST PUSH1 0x6 PUSH1 0x0 SWAP1 SLOAD SWAP1 PUSH2 0x100 EXP SWAP1 DIV PUSH1 0xFF AND PUSH1 0x4 DUP2 GT ISZERO PUSH2 0x496 JUMPI INVALID JUMPDEST EQ ISZERO PUSH2 0x641 JUMPI PUSH2 0x4A6 DUP4 DUP4 PUSH2 0x1155 JUMP JUMPDEST ISZERO PUSH2 0x512 JUMPI PUSH2 0x4B4 DUP2 PUSH2 0x1178 JUMP JUMPDEST ISZERO PUSH2 0x4D0 JUMPI PUSH2 0x4C3 PUSH1 0x2 PUSH2 0x11D0 JUMP JUMPDEST PUSH1 0x5 SLOAD SWAP4 POP POP POP POP PUSH2 0x9B9 JUMP JUMPDEST PUSH2 0x4D9 DUP2 PUSH2 0x123B JUMP JUMPDEST ISZERO PUSH2 0x4F5 JUMPI PUSH2 0x4E8 PUSH1 0x1 PUSH2 0x11D0 JUMP JUMPDEST PUSH1 0x5 SLOAD SWAP4 POP POP POP POP PUSH2 0x9B9 JUMP JUMPDEST PUSH2 0x4FF PUSH1 0x1 PUSH2 0x11D0 JUMP JUMPDEST PUSH2 0x508 DUP2 PUSH2 0x125F JUMP JUMPDEST SWAP4 POP POP POP POP PUSH2 0x9B9 JUMP JUMPDEST PUSH2 0x51B DUP4 PUSH2 0x1283 JUMP JUMPDEST ISZERO PUSH2 0x57D JUMPI PUSH2 0x529 DUP2 PUSH2 0x1178 JUMP JUMPDEST ISZERO PUSH2 0x545 JUMPI PUSH2 0x538 PUSH1 0x4 PUSH2 0x11D0 JUMP JUMPDEST PUSH1 0x5 SLOAD SWAP4 POP POP POP POP PUSH2 0x9B9 JUMP JUMPDEST PUSH2 0x54F PUSH1 0x3 PUSH2 0x11D0 JUMP JUMPDEST PUSH2 0x558 DUP2 PUSH2 0x123B JUMP JUMPDEST ISZERO PUSH2 0x56A JUMPI PUSH1 0x5 SLOAD SWAP4 POP POP POP POP PUSH2 0x9B9 JUMP JUMPDEST PUSH2 0x573 DUP2 PUSH2 0x125F JUMP JUMPDEST SWAP4 POP POP POP POP PUSH2 0x9B9 JUMP JUMPDEST PUSH2 0x587 DUP4 DUP4 PUSH2 0x12A7 JUMP JUMPDEST ISZERO PUSH2 0x615 JUMPI PUSH2 0x595 DUP2 PUSH2 0x1178 JUMP JUMPDEST ISZERO PUSH2 0x5B1 JUMPI PUSH2 0x5A4 PUSH1 0x2 PUSH2 0x11D0 JUMP JUMPDEST PUSH1 0x5 SLOAD SWAP4 POP POP POP POP PUSH2 0x9B9 JUMP JUMPDEST PUSH2 0x5BA DUP2 PUSH2 0x123B JUMP JUMPDEST ISZERO PUSH2 0x5D6 JUMPI PUSH2 0x5C9 PUSH1 0x1 PUSH2 0x11D0 JUMP JUMPDEST PUSH1 0x5 SLOAD SWAP4 POP POP POP POP PUSH2 0x9B9 JUMP JUMPDEST PUSH2 0x5E0 DUP4 DUP3 PUSH2 0x1351 JUMP JUMPDEST ISZERO PUSH2 0x5F8 JUMPI PUSH2 0x5EE DUP4 PUSH2 0x13F3 JUMP JUMPDEST SWAP4 POP POP POP POP PUSH2 0x9B9 JUMP JUMPDEST PUSH2 0x602 PUSH1 0x1 PUSH2 0x11D0 JUMP JUMPDEST PUSH2 0x60B DUP2 PUSH2 0x125F JUMP JUMPDEST SWAP4 POP POP POP POP PUSH2 0x9B9 JUMP JUMPDEST PUSH2 0x61E DUP2 PUSH2 0x1178 JUMP JUMPDEST ISZERO PUSH2 0x62E JUMPI PUSH2 0x62D PUSH1 0x4 PUSH2 0x11D0 JUMP JUMPDEST JUMPDEST PUSH2 0x637 DUP4 PUSH2 0x13F3 JUMP JUMPDEST SWAP4 POP POP POP POP PUSH2 0x9B9 JUMP JUMPDEST PUSH1 0x1 PUSH1 0x4 DUP2 GT ISZERO PUSH2 0x64E JUMPI INVALID JUMPDEST PUSH1 0x6 PUSH1 0x0 SWAP1 SLOAD SWAP1 PUSH2 0x100 EXP SWAP1 DIV PUSH1 0xFF AND PUSH1 0x4 DUP2 GT ISZERO PUSH2 0x669 JUMPI INVALID JUMPDEST EQ ISZERO PUSH2 0x6EF JUMPI PUSH2 0x67A DUP4 DUP4 DUP4 PUSH2 0x141F JUMP JUMPDEST ISZERO PUSH2 0x69C JUMPI PUSH2 0x689 PUSH1 0x0 PUSH2 0x11D0 JUMP JUMPDEST PUSH2 0x692 DUP4 PUSH2 0x13F3 JUMP JUMPDEST SWAP4 POP POP POP POP PUSH2 0x9B9 JUMP JUMPDEST PUSH2 0x6A5 DUP2 PUSH2 0x1178 JUMP JUMPDEST ISZERO PUSH2 0x6C1 JUMPI PUSH2 0x6B4 PUSH1 0x2 PUSH2 0x11D0 JUMP JUMPDEST PUSH1 0x5 SLOAD SWAP4 POP POP POP POP PUSH2 0x9B9 JUMP JUMPDEST PUSH2 0x6CA DUP2 PUSH2 0x123B JUMP JUMPDEST ISZERO PUSH2 0x6DC JUMPI PUSH1 0x5 SLOAD SWAP4 POP POP POP POP PUSH2 0x9B9 JUMP JUMPDEST PUSH2 0x6E5 DUP2 PUSH2 0x125F JUMP JUMPDEST SWAP4 POP POP POP POP PUSH2 0x9B9 JUMP JUMPDEST PUSH1 0x2 PUSH1 0x4 DUP2 GT ISZERO PUSH2 0x6FC JUMPI INVALID JUMPDEST PUSH1 0x6 PUSH1 0x0 SWAP1 SLOAD SWAP1 PUSH2 0x100 EXP SWAP1 DIV PUSH1 0xFF AND PUSH1 0x4 DUP2 GT ISZERO PUSH2 0x717 JUMPI INVALID JUMPDEST EQ ISZERO PUSH2 0x757 JUMPI PUSH2 0x728 DUP4 DUP4 DUP4 PUSH2 0x141F JUMP JUMPDEST ISZERO PUSH2 0x74A JUMPI PUSH2 0x737 PUSH1 0x0 PUSH2 0x11D0 JUMP JUMPDEST PUSH2 0x740 DUP4 PUSH2 0x13F3 JUMP JUMPDEST SWAP4 POP POP POP POP PUSH2 0x9B9 JUMP JUMPDEST PUSH1 0x5 SLOAD SWAP4 POP POP POP POP PUSH2 0x9B9 JUMP JUMPDEST PUSH1 0x3 PUSH1 0x4 DUP2 GT ISZERO PUSH2 0x764 JUMPI INVALID JUMPDEST PUSH1 0x6 PUSH1 0x0 SWAP1 SLOAD SWAP1 PUSH2 0x100 EXP SWAP1 DIV PUSH1 0xFF AND PUSH1 0x4 DUP2 GT ISZERO PUSH2 0x77F JUMPI INVALID JUMPDEST EQ ISZERO PUSH2 0x8E1 JUMPI PUSH2 0x78F DUP4 DUP4 PUSH2 0x1155 JUMP JUMPDEST ISZERO PUSH2 0x7F1 JUMPI PUSH2 0x79D DUP2 PUSH2 0x1178 JUMP JUMPDEST ISZERO PUSH2 0x7B9 JUMPI PUSH2 0x7AC PUSH1 0x2 PUSH2 0x11D0 JUMP JUMPDEST PUSH1 0x5 SLOAD SWAP4 POP POP POP POP PUSH2 0x9B9 JUMP JUMPDEST PUSH2 0x7C3 PUSH1 0x1 PUSH2 0x11D0 JUMP JUMPDEST PUSH2 0x7CC DUP2 PUSH2 0x123B JUMP JUMPDEST ISZERO PUSH2 0x7DE JUMPI PUSH1 0x5 SLOAD SWAP4 POP POP POP POP PUSH2 0x9B9 JUMP JUMPDEST PUSH2 0x7E7 DUP2 PUSH2 0x125F JUMP JUMPDEST SWAP4 POP POP POP POP PUSH2 0x9B9 JUMP JUMPDEST PUSH2 0x7FA DUP4 PUSH2 0x1283 JUMP JUMPDEST ISZERO PUSH2 0x852 JUMPI PUSH2 0x808 DUP2 PUSH2 0x1178 JUMP JUMPDEST ISZERO PUSH2 0x824 JUMPI PUSH2 0x817 PUSH1 0x4 PUSH2 0x11D0 JUMP JUMPDEST PUSH1 0x5 SLOAD SWAP4 POP POP POP POP PUSH2 0x9B9 JUMP JUMPDEST PUSH2 0x82D DUP2 PUSH2 0x123B JUMP JUMPDEST ISZERO PUSH2 0x83F JUMPI PUSH1 0x5 SLOAD SWAP4 POP POP POP POP PUSH2 0x9B9 JUMP JUMPDEST PUSH2 0x848 DUP2 PUSH2 0x125F JUMP JUMPDEST SWAP4 POP POP POP POP PUSH2 0x9B9 JUMP JUMPDEST PUSH2 0x85B DUP2 PUSH2 0x1178 JUMP JUMPDEST ISZERO PUSH2 0x87D JUMPI PUSH2 0x86A PUSH1 0x4 PUSH2 0x11D0 JUMP JUMPDEST PUSH2 0x873 DUP4 PUSH2 0x13F3 JUMP JUMPDEST SWAP4 POP POP POP POP PUSH2 0x9B9 JUMP JUMPDEST PUSH2 0x886 DUP2 PUSH2 0x123B JUMP JUMPDEST ISZERO PUSH2 0x898 JUMPI PUSH1 0x5 SLOAD SWAP4 POP POP POP POP PUSH2 0x9B9 JUMP JUMPDEST PUSH2 0x8A2 DUP4 DUP3 PUSH2 0x1351 JUMP JUMPDEST ISZERO PUSH2 0x8C4 JUMPI PUSH2 0x8B1 PUSH1 0x0 PUSH2 0x11D0 JUMP JUMPDEST PUSH2 0x8BA DUP4 PUSH2 0x13F3 JUMP JUMPDEST SWAP4 POP POP POP POP PUSH2 0x9B9 JUMP JUMPDEST PUSH2 0x8CE PUSH1 0x1 PUSH2 0x11D0 JUMP JUMPDEST PUSH2 0x8D7 DUP2 PUSH2 0x125F JUMP JUMPDEST SWAP4 POP POP POP POP PUSH2 0x9B9 JUMP JUMPDEST PUSH1 0x4 DUP1 DUP2 GT ISZERO PUSH2 0x8ED JUMPI INVALID JUMPDEST PUSH1 0x6 PUSH1 0x0 SWAP1 SLOAD SWAP1 PUSH2 0x100 EXP SWAP1 DIV PUSH1 0xFF AND PUSH1 0x4 DUP2 GT ISZERO PUSH2 0x908 JUMPI INVALID JUMPDEST EQ ISZERO PUSH2 0x9B5 JUMPI PUSH2 0x918 DUP4 DUP4 PUSH2 0x1155 JUMP JUMPDEST ISZERO PUSH2 0x934 JUMPI PUSH2 0x927 PUSH1 0x2 PUSH2 0x11D0 JUMP JUMPDEST PUSH1 0x5 SLOAD SWAP4 POP POP POP POP PUSH2 0x9B9 JUMP JUMPDEST PUSH2 0x93D DUP4 PUSH2 0x1283 JUMP JUMPDEST ISZERO PUSH2 0x94F JUMPI PUSH1 0x5 SLOAD SWAP4 POP POP POP POP PUSH2 0x9B9 JUMP JUMPDEST PUSH2 0x95A DUP4 DUP4 DUP4 PUSH2 0x141F JUMP JUMPDEST ISZERO PUSH2 0x97C JUMPI PUSH2 0x969 PUSH1 0x0 PUSH2 0x11D0 JUMP JUMPDEST PUSH2 0x972 DUP4 PUSH2 0x13F3 JUMP JUMPDEST SWAP4 POP POP POP POP PUSH2 0x9B9 JUMP JUMPDEST PUSH2 0x986 DUP4 DUP4 PUSH2 0x12A7 JUMP JUMPDEST ISZERO PUSH2 0x9A2 JUMPI PUSH2 0x995 PUSH1 0x2 PUSH2 0x11D0 JUMP JUMPDEST PUSH1 0x5 SLOAD SWAP4 POP POP POP POP PUSH2 0x9B9 JUMP JUMPDEST PUSH2 0x9AB DUP4 PUSH2 0x13F3 JUMP JUMPDEST SWAP4 POP POP POP POP PUSH2 0x9B9 JUMP JUMPDEST POP POP POP JUMPDEST SWAP1 JUMP JUMPDEST PUSH1 0x12 DUP2 JUMP JUMPDEST PUSH1 0x6 PUSH1 0x0 SWAP1 SLOAD SWAP1 PUSH2 0x100 EXP SWAP1 DIV PUSH1 0xFF AND DUP2 JUMP JUMPDEST PUSH1 0x1 PUSH1 0x0 SWAP1 SLOAD SWAP1 PUSH2 0x100 EXP SWAP1 DIV PUSH20 0xFFFFFFFFFFFFFFFFFFFFFFFFFFFFFFFFFFFFFFFF AND DUP2 JUMP JUMPDEST PUSH7 0xB1A2BC2EC50000 DUP2 JUMP JUMPDEST PUSH8 0x6F05B59D3B20000 DUP2 JUMP JUMPDEST PUSH1 0x1 DUP2 JUMP JUMPDEST PUSH1 0x2 PUSH1 0x0 SWAP1 SLOAD SWAP1 PUSH2 0x100 EXP SWAP1 DIV PUSH20 0xFFFFFFFFFFFFFFFFFFFFFFFFFFFFFFFFFFFFFFFF AND DUP2 JUMP JUMPDEST PUSH1 0x0 DUP1 PUSH1 0x0 SWAP1 SLOAD SWAP1 PUSH2 0x100 EXP SWAP1 DIV PUSH20 0xFFFFFFFFFFFFFFFFFFFFFFFFFFFFFFFFFFFFFFFF AND SWAP1 POP SWAP1 JUMP JUMPDEST PUSH1 0x0 DUP1 PUSH1 0x0 SWAP1 SLOAD SWAP1 PUSH2 0x100 EXP SWAP1 DIV PUSH20 0xFFFFFFFFFFFFFFFFFFFFFFFFFFFFFFFFFFFFFFFF AND PUSH20 0xFFFFFFFFFFFFFFFFFFFFFFFFFFFFFFFFFFFFFFFF AND CALLER PUSH20 0xFFFFFFFFFFFFFFFFFFFFFFFFFFFFFFFFFFFFFFFF AND EQ SWAP1 POP SWAP1 JUMP JUMPDEST PUSH2 0xAC4 PUSH2 0xA65 JUMP JUMPDEST PUSH2 0xB36 JUMPI PUSH1 0x40 MLOAD PUSH32 0x8C379A000000000000000000000000000000000000000000000000000000000 DUP2 MSTORE PUSH1 0x4 ADD DUP1 DUP1 PUSH1 0x20 ADD DUP3 DUP2 SUB DUP3 MSTORE PUSH1 0x20 DUP2 MSTORE PUSH1 0x20 ADD DUP1 PUSH32 0x4F776E61626C653A2063616C6C6572206973206E6F7420746865206F776E6572 DUP2 MSTORE POP PUSH1 0x20 ADD SWAP2 POP POP PUSH1 0x40 MLOAD DUP1 SWAP2 SUB SWAP1 REVERT JUMPDEST PUSH2 0xB3F DUP3 PUSH2 0x147D JUMP JUMPDEST PUSH2 0xB48 DUP2 PUSH2 0x147D JUMP JUMPDEST DUP2 PUSH1 0x1 PUSH1 0x0 PUSH2 0x100 EXP DUP2 SLOAD DUP2 PUSH20 0xFFFFFFFFFFFFFFFFFFFFFFFFFFFFFFFFFFFFFFFF MUL NOT AND SWAP1 DUP4 PUSH20 0xFFFFFFFFFFFFFFFFFFFFFFFFFFFFFFFFFFFFFFFF AND MUL OR SWAP1 SSTORE POP DUP1 PUSH1 0x2 PUSH1 0x0 PUSH2 0x100 EXP DUP2 SLOAD DUP2 PUSH20 0xFFFFFFFFFFFFFFFFFFFFFFFFFFFFFFFFFFFFFFFF MUL NOT AND SWAP1 DUP4 PUSH20 0xFFFFFFFFFFFFFFFFFFFFFFFFFFFFFFFFFFFFFFFF AND MUL OR SWAP1 SSTORE POP PUSH1 0x0 PUSH1 0x6 PUSH1 0x0 PUSH2 0x100 EXP DUP2 SLOAD DUP2 PUSH1 0xFF MUL NOT AND SWAP1 DUP4 PUSH1 0x4 DUP2 GT ISZERO PUSH2 0xBE9 JUMPI INVALID JUMPDEST MUL OR SWAP1 SSTORE POP PUSH2 0xBF6 PUSH2 0x1A6A JUMP JUMPDEST PUSH2 0xBFE PUSH2 0xCF6 JUMP JUMPDEST SWAP1 POP PUSH2 0xC08 PUSH2 0x1A6A JUMP JUMPDEST PUSH2 0xC1A DUP3 PUSH1 0x0 ADD MLOAD DUP4 PUSH1 0x80 ADD MLOAD PUSH2 0xEDE JUMP JUMPDEST SWAP1 POP PUSH2 0xC26 DUP3 DUP3 PUSH2 0x1155 JUMP JUMPDEST ISZERO DUP1 ISZERO PUSH2 0xC39 JUMPI POP PUSH2 0xC37 DUP3 PUSH2 0x1283 JUMP JUMPDEST ISZERO JUMPDEST PUSH2 0xC8E JUMPI PUSH1 0x40 MLOAD PUSH32 0x8C379A000000000000000000000000000000000000000000000000000000000 DUP2 MSTORE PUSH1 0x4 ADD DUP1 DUP1 PUSH1 0x20 ADD DUP3 DUP2 SUB DUP3 MSTORE PUSH1 0x30 DUP2 MSTORE PUSH1 0x20 ADD DUP1 PUSH2 0x1AF8 PUSH1 0x30 SWAP2 CODECOPY PUSH1 0x40 ADD SWAP2 POP POP PUSH1 0x40 MLOAD DUP1 SWAP2 SUB SWAP1 REVERT JUMPDEST PUSH2 0xC97 DUP3 PUSH2 0x13F3 JUMP JUMPDEST POP PUSH2 0xCA0 PUSH2 0x15A0 JUMP JUMPDEST POP POP POP POP JUMP JUMPDEST PUSH8 0xDE0B6B3A7640000 DUP2 JUMP JUMPDEST PUSH1 0x40 MLOAD DUP1 PUSH1 0x40 ADD PUSH1 0x40 MSTORE DUP1 PUSH1 0x9 DUP2 MSTORE PUSH1 0x20 ADD PUSH32 0x5072696365466565640000000000000000000000000000000000000000000000 DUP2 MSTORE POP DUP2 JUMP JUMPDEST PUSH1 0x6 DUP2 JUMP JUMPDEST PUSH2 0x3840 DUP2 JUMP JUMPDEST PUSH2 0xCFE PUSH2 0x1A6A JUMP JUMPDEST PUSH1 0x1 PUSH1 0x0 SWAP1 SLOAD SWAP1 PUSH2 0x100 EXP SWAP1 DIV PUSH20 0xFFFFFFFFFFFFFFFFFFFFFFFFFFFFFFFFFFFFFFFF AND PUSH20 0xFFFFFFFFFFFFFFFFFFFFFFFFFFFFFFFFFFFFFFFF AND PUSH4 0x313CE567 PUSH1 0x40 MLOAD DUP2 PUSH4 0xFFFFFFFF AND PUSH1 0xE0 SHL DUP2 MSTORE PUSH1 0x4 ADD PUSH1 0x20 PUSH1 0x40 MLOAD DUP1 DUP4 SUB DUP2 DUP7 DUP1 EXTCODESIZE ISZERO DUP1 ISZERO PUSH2 0xD66 JUMPI PUSH1 0x0 DUP1 REVERT JUMPDEST POP GAS STATICCALL SWAP3 POP POP POP DUP1 ISZERO PUSH2 0xD9A JUMPI POP PUSH1 0x40 MLOAD RETURNDATASIZE PUSH1 0x20 DUP2 LT ISZERO PUSH2 0xD86 JUMPI PUSH1 0x0 DUP1 REVERT JUMPDEST DUP2 ADD SWAP1 DUP1 DUP1 MLOAD SWAP1 PUSH1 0x20 ADD SWAP1 SWAP3 SWAP2 SWAP1 POP POP POP PUSH1 0x1 JUMPDEST PUSH2 0xDA6 JUMPI DUP1 SWAP1 POP PUSH2 0xEDB JUMP JUMPDEST DUP1 DUP3 PUSH1 0x80 ADD SWAP1 PUSH1 0xFF AND SWAP1 DUP2 PUSH1 0xFF AND DUP2 MSTORE POP POP POP PUSH1 0x1 PUSH1 0x0 SWAP1 SLOAD SWAP1 PUSH2 0x100 EXP SWAP1 DIV PUSH20 0xFFFFFFFFFFFFFFFFFFFFFFFFFFFFFFFFFFFFFFFF AND PUSH20 0xFFFFFFFFFFFFFFFFFFFFFFFFFFFFFFFFFFFFFFFF AND PUSH4 0xFEAF968C PUSH1 0x40 MLOAD DUP2 PUSH4 0xFFFFFFFF AND PUSH1 0xE0 SHL DUP2 MSTORE PUSH1 0x4 ADD PUSH1 0xA0 PUSH1 0x40 MLOAD DUP1 DUP4 SUB DUP2 DUP7 DUP1 EXTCODESIZE ISZERO DUP1 ISZERO PUSH2 0xE21 JUMPI PUSH1 0x0 DUP1 REVERT JUMPDEST POP GAS STATICCALL SWAP3 POP POP POP DUP1 ISZERO PUSH2 0xE7D JUMPI POP PUSH1 0x40 MLOAD RETURNDATASIZE PUSH1 0xA0 DUP2 LT ISZERO PUSH2 0xE41 JUMPI PUSH1 0x0 DUP1 REVERT JUMPDEST DUP2 ADD SWAP1 DUP1 DUP1 MLOAD SWAP1 PUSH1 0x20 ADD SWAP1 SWAP3 SWAP2 SWAP1 DUP1 MLOAD SWAP1 PUSH1 0x20 ADD SWAP1 SWAP3 SWAP2 SWAP1 DUP1 MLOAD SWAP1 PUSH1 0x20 ADD SWAP1 SWAP3 SWAP2 SWAP1 DUP1 MLOAD SWAP1 PUSH1 0x20 ADD SWAP1 SWAP3 SWAP2 SWAP1 DUP1 MLOAD SWAP1 PUSH1 0x20 ADD SWAP1 SWAP3 SWAP2 SWAP1 POP POP POP PUSH1 0x1 JUMPDEST PUSH2 0xE89 JUMPI DUP1 SWAP1 POP PUSH2 0xEDB JUMP JUMPDEST DUP5 DUP7 PUSH1 0x0 ADD SWAP1 PUSH10 0xFFFFFFFFFFFFFFFFFFFF AND SWAP1 DUP2 PUSH10 0xFFFFFFFFFFFFFFFFFFFF AND DUP2 MSTORE POP POP DUP4 DUP7 PUSH1 0x20 ADD DUP2 DUP2 MSTORE POP POP DUP2 DUP7 PUSH1 0x40 ADD DUP2 DUP2 MSTORE POP POP PUSH1 0x1 DUP7 PUSH1 0x60 ADD SWAP1 ISZERO ISZERO SWAP1 DUP2 ISZERO ISZERO DUP2 MSTORE POP POP DUP6 SWAP6 POP POP POP POP POP POP JUMPDEST SWAP1 JUMP JUMPDEST PUSH2 0xEE6 PUSH2 0x1A6A JUMP JUMPDEST PUSH1 0x1 PUSH1 0x0 SWAP1 SLOAD SWAP1 PUSH2 0x100 EXP SWAP1 DIV PUSH20 0xFFFFFFFFFFFFFFFFFFFFFFFFFFFFFFFFFFFFFFFF AND PUSH20 0xFFFFFFFFFFFFFFFFFFFFFFFFFFFFFFFFFFFFFFFF AND PUSH4 0x9A6FC8F5 PUSH1 0x1 DUP6 SUB PUSH1 0x40 MLOAD DUP3 PUSH4 0xFFFFFFFF AND PUSH1 0xE0 SHL DUP2 MSTORE PUSH1 0x4 ADD DUP1 DUP3 PUSH10 0xFFFFFFFFFFFFFFFFFFFF AND PUSH10 0xFFFFFFFFFFFFFFFFFFFF AND DUP2 MSTORE PUSH1 0x20 ADD SWAP2 POP POP PUSH1 0xA0 PUSH1 0x40 MLOAD DUP1 DUP4 SUB DUP2 DUP7 DUP1 EXTCODESIZE ISZERO DUP1 ISZERO PUSH2 0xF74 JUMPI PUSH1 0x0 DUP1 REVERT JUMPDEST POP GAS STATICCALL SWAP3 POP POP POP DUP1 ISZERO PUSH2 0xFD0 JUMPI POP PUSH1 0x40 MLOAD RETURNDATASIZE PUSH1 0xA0 DUP2 LT ISZERO PUSH2 0xF94 JUMPI PUSH1 0x0 DUP1 REVERT JUMPDEST DUP2 ADD SWAP1 DUP1 DUP1 MLOAD SWAP1 PUSH1 0x20 ADD SWAP1 SWAP3 SWAP2 SWAP1 DUP1 MLOAD SWAP1 PUSH1 0x20 ADD SWAP1 SWAP3 SWAP2 SWAP1 DUP1 MLOAD SWAP1 PUSH1 0x20 ADD SWAP1 SWAP3 SWAP2 SWAP1 DUP1 MLOAD SWAP1 PUSH1 0x20 ADD SWAP1 SWAP3 SWAP2 SWAP1 DUP1 MLOAD SWAP1 PUSH1 0x20 ADD SWAP1 SWAP3 SWAP2 SWAP1 POP POP POP PUSH1 0x1 JUMPDEST PUSH2 0xFDC JUMPI DUP1 SWAP1 POP PUSH2 0x1040 JUMP JUMPDEST DUP5 DUP7 PUSH1 0x0 ADD SWAP1 PUSH10 0xFFFFFFFFFFFFFFFFFFFF AND SWAP1 DUP2 PUSH10 0xFFFFFFFFFFFFFFFFFFFF AND DUP2 MSTORE POP POP DUP4 DUP7 PUSH1 0x20 ADD DUP2 DUP2 MSTORE POP POP DUP2 DUP7 PUSH1 0x40 ADD DUP2 DUP2 MSTORE POP POP DUP7 DUP7 PUSH1 0x80 ADD SWAP1 PUSH1 0xFF AND SWAP1 DUP2 PUSH1 0xFF AND DUP2 MSTORE POP POP PUSH1 0x1 DUP7 PUSH1 0x60 ADD SWAP1 ISZERO ISZERO SWAP1 DUP2 ISZERO ISZERO DUP2 MSTORE POP POP DUP6 SWAP6 POP POP POP POP POP POP JUMPDEST SWAP3 SWAP2 POP POP JUMP JUMPDEST PUSH2 0x104E PUSH2 0x1AAA JUMP JUMPDEST PUSH1 0x2 PUSH1 0x0 SWAP1 SLOAD SWAP1 PUSH2 0x100 EXP SWAP1 DIV PUSH20 0xFFFFFFFFFFFFFFFFFFFFFFFFFFFFFFFFFFFFFFFF AND PUSH20 0xFFFFFFFFFFFFFFFFFFFFFFFFFFFFFFFFFFFFFFFF AND PUSH4 0x32E6AADB PUSH1 0x1 PUSH1 0x40 MLOAD DUP3 PUSH4 0xFFFFFFFF AND PUSH1 0xE0 SHL DUP2 MSTORE PUSH1 0x4 ADD DUP1 DUP3 DUP2 MSTORE PUSH1 0x20 ADD SWAP2 POP POP PUSH1 0x60 PUSH1 0x40 MLOAD DUP1 DUP4 SUB DUP2 DUP7 DUP1 EXTCODESIZE ISZERO DUP1 ISZERO PUSH2 0x10C2 JUMPI PUSH1 0x0 DUP1 REVERT JUMPDEST POP GAS STATICCALL SWAP3 POP POP POP DUP1 ISZERO PUSH2 0x110A JUMPI POP PUSH1 0x40 MLOAD RETURNDATASIZE PUSH1 0x60 DUP2 LT ISZERO PUSH2 0x10E2 JUMPI PUSH1 0x0 DUP1 REVERT JUMPDEST DUP2 ADD SWAP1 DUP1 DUP1 MLOAD SWAP1 PUSH1 0x20 ADD SWAP1 SWAP3 SWAP2 SWAP1 DUP1 MLOAD SWAP1 PUSH1 0x20 ADD SWAP1 SWAP3 SWAP2 SWAP1 DUP1 MLOAD SWAP1 PUSH1 0x20 ADD SWAP1 SWAP3 SWAP2 SWAP1 POP POP POP PUSH1 0x1 JUMPDEST PUSH2 0x1116 JUMPI DUP1 SWAP1 POP PUSH2 0x1152 JUMP JUMPDEST DUP3 DUP5 PUSH1 0x0 ADD SWAP1 ISZERO ISZERO SWAP1 DUP2 ISZERO ISZERO DUP2 MSTORE POP POP DUP2 DUP5 PUSH1 0x20 ADD DUP2 DUP2 MSTORE POP POP DUP1 DUP5 PUSH1 0x40 ADD DUP2 DUP2 MSTORE POP POP PUSH1 0x1 DUP5 PUSH1 0x60 ADD SWAP1 ISZERO ISZERO SWAP1 DUP2 ISZERO ISZERO DUP2 MSTORE POP POP DUP4 SWAP4 POP POP POP POP JUMPDEST SWAP1 JUMP JUMPDEST PUSH1 0x0 PUSH2 0x1160 DUP4 PUSH2 0x165F JUMP JUMPDEST DUP1 PUSH2 0x1170 JUMPI POP PUSH2 0x116F DUP3 PUSH2 0x165F JUMP JUMPDEST JUMPDEST SWAP1 POP SWAP3 SWAP2 POP POP JUMP JUMPDEST PUSH1 0x0 DUP2 PUSH1 0x60 ADD MLOAD PUSH2 0x118C JUMPI PUSH1 0x1 SWAP1 POP PUSH2 0x11CB JUMP JUMPDEST PUSH1 0x0 DUP3 PUSH1 0x40 ADD MLOAD EQ DUP1 PUSH2 0x11A2 JUMPI POP TIMESTAMP DUP3 PUSH1 0x40 ADD MLOAD GT JUMPDEST ISZERO PUSH2 0x11B0 JUMPI PUSH1 0x1 SWAP1 POP PUSH2 0x11CB JUMP JUMPDEST PUSH1 0x0 DUP3 PUSH1 0x20 ADD MLOAD EQ ISZERO PUSH2 0x11C6 JUMPI PUSH1 0x1 SWAP1 POP PUSH2 0x11CB JUMP JUMPDEST PUSH1 0x0 SWAP1 POP JUMPDEST SWAP2 SWAP1 POP JUMP JUMPDEST DUP1 PUSH1 0x6 PUSH1 0x0 PUSH2 0x100 EXP DUP2 SLOAD DUP2 PUSH1 0xFF MUL NOT AND SWAP1 DUP4 PUSH1 0x4 DUP2 GT ISZERO PUSH2 0x11EE JUMPI INVALID JUMPDEST MUL OR SWAP1 SSTORE POP PUSH32 0x5C57579A8214FE4F710C1C56FA829F045B9FA6D225A744225A30C32188064D4E DUP2 PUSH1 0x40 MLOAD DUP1 DUP3 PUSH1 0x4 DUP2 GT ISZERO PUSH2 0x1225 JUMPI INVALID JUMPDEST PUSH1 0xFF AND DUP2 MSTORE PUSH1 0x20 ADD SWAP2 POP POP PUSH1 0x40 MLOAD DUP1 SWAP2 SUB SWAP1 LOG1 POP JUMP JUMPDEST PUSH1 0x0 PUSH2 0x3840 PUSH2 0x1257 DUP4 PUSH1 0x40 ADD MLOAD TIMESTAMP PUSH2 0x16D8 SWAP1 SWAP2 SWAP1 PUSH4 0xFFFFFFFF AND JUMP JUMPDEST GT SWAP1 POP SWAP2 SWAP1 POP JUMP JUMPDEST PUSH1 0x0 DUP1 PUSH2 0x126F DUP4 PUSH1 0x20 ADD MLOAD PUSH2 0x1722 JUMP JUMPDEST SWAP1 POP PUSH2 0x127A DUP2 PUSH2 0x1745 JUMP JUMPDEST DUP1 SWAP2 POP POP SWAP2 SWAP1 POP JUMP JUMPDEST PUSH1 0x0 PUSH2 0x3840 PUSH2 0x129F DUP4 PUSH1 0x40 ADD MLOAD TIMESTAMP PUSH2 0x16D8 SWAP1 SWAP2 SWAP1 PUSH4 0xFFFFFFFF AND JUMP JUMPDEST GT SWAP1 POP SWAP2 SWAP1 POP JUMP JUMPDEST PUSH1 0x0 DUP1 PUSH2 0x12BF DUP5 PUSH1 0x20 ADD MLOAD DUP6 PUSH1 0x80 ADD MLOAD PUSH1 0xFF AND PUSH2 0x1786 JUMP JUMPDEST SWAP1 POP PUSH1 0x0 PUSH2 0x12D8 DUP5 PUSH1 0x20 ADD MLOAD DUP6 PUSH1 0x80 ADD MLOAD PUSH1 0xFF AND PUSH2 0x1786 JUMP JUMPDEST SWAP1 POP PUSH1 0x0 PUSH2 0x12E6 DUP4 DUP4 PUSH2 0x17E1 JUMP JUMPDEST SWAP1 POP PUSH1 0x0 PUSH2 0x12F4 DUP5 DUP5 PUSH2 0x17FA JUMP JUMPDEST SWAP1 POP PUSH1 0x0 PUSH2 0x1337 DUP3 PUSH2 0x1329 PUSH8 0xDE0B6B3A7640000 PUSH2 0x131B DUP8 DUP8 PUSH2 0x16D8 SWAP1 SWAP2 SWAP1 PUSH4 0xFFFFFFFF AND JUMP JUMPDEST PUSH2 0x1814 SWAP1 SWAP2 SWAP1 PUSH4 0xFFFFFFFF AND JUMP JUMPDEST PUSH2 0x189A SWAP1 SWAP2 SWAP1 PUSH4 0xFFFFFFFF AND JUMP JUMPDEST SWAP1 POP PUSH8 0x6F05B59D3B20000 DUP2 GT SWAP6 POP POP POP POP POP POP SWAP3 SWAP2 POP POP JUMP JUMPDEST PUSH1 0x0 DUP1 PUSH2 0x1369 DUP5 PUSH1 0x20 ADD MLOAD DUP6 PUSH1 0x80 ADD MLOAD PUSH1 0xFF AND PUSH2 0x1786 JUMP JUMPDEST SWAP1 POP PUSH1 0x0 PUSH2 0x137A DUP5 PUSH1 0x20 ADD MLOAD PUSH2 0x1722 JUMP JUMPDEST SWAP1 POP PUSH1 0x0 PUSH2 0x1388 DUP3 DUP5 PUSH2 0x17E1 JUMP JUMPDEST SWAP1 POP PUSH1 0x0 PUSH2 0x1396 DUP4 DUP6 PUSH2 0x17FA JUMP JUMPDEST SWAP1 POP PUSH1 0x0 PUSH2 0x13D9 DUP4 PUSH2 0x13CB PUSH8 0xDE0B6B3A7640000 PUSH2 0x13BD DUP8 DUP8 PUSH2 0x16D8 SWAP1 SWAP2 SWAP1 PUSH4 0xFFFFFFFF AND JUMP JUMPDEST PUSH2 0x1814 SWAP1 SWAP2 SWAP1 PUSH4 0xFFFFFFFF AND JUMP JUMPDEST PUSH2 0x189A SWAP1 SWAP2 SWAP1 PUSH4 0xFFFFFFFF AND JUMP JUMPDEST SWAP1 POP PUSH7 0xB1A2BC2EC50000 DUP2 GT ISZERO SWAP6 POP POP POP POP POP POP SWAP3 SWAP2 POP POP JUMP JUMPDEST PUSH1 0x0 DUP1 PUSH2 0x140B DUP4 PUSH1 0x20 ADD MLOAD DUP5 PUSH1 0x80 ADD MLOAD PUSH1 0xFF AND PUSH2 0x1786 JUMP JUMPDEST SWAP1 POP PUSH2 0x1416 DUP2 PUSH2 0x1745 JUMP JUMPDEST DUP1 SWAP2 POP POP SWAP2 SWAP1 POP JUMP JUMPDEST PUSH1 0x0 PUSH2 0x142A DUP3 PUSH2 0x1178 JUMP JUMPDEST DUP1 PUSH2 0x143A JUMPI POP PUSH2 0x1439 DUP3 PUSH2 0x123B JUMP JUMPDEST JUMPDEST DUP1 PUSH2 0x144B JUMPI POP PUSH2 0x144A DUP5 DUP5 PUSH2 0x1155 JUMP JUMPDEST JUMPDEST DUP1 PUSH2 0x145B JUMPI POP PUSH2 0x145A DUP5 PUSH2 0x1283 JUMP JUMPDEST JUMPDEST ISZERO PUSH2 0x1469 JUMPI PUSH1 0x0 SWAP1 POP PUSH2 0x1476 JUMP JUMPDEST PUSH2 0x1473 DUP5 DUP4 PUSH2 0x1351 JUMP JUMPDEST SWAP1 POP JUMPDEST SWAP4 SWAP3 POP POP POP JUMP JUMPDEST PUSH1 0x0 PUSH20 0xFFFFFFFFFFFFFFFFFFFFFFFFFFFFFFFFFFFFFFFF AND DUP2 PUSH20 0xFFFFFFFFFFFFFFFFFFFFFFFFFFFFFFFFFFFFFFFF AND EQ ISZERO PUSH2 0x1520 JUMPI PUSH1 0x40 MLOAD PUSH32 0x8C379A000000000000000000000000000000000000000000000000000000000 DUP2 MSTORE PUSH1 0x4 ADD DUP1 DUP1 PUSH1 0x20 ADD DUP3 DUP2 SUB DUP3 MSTORE PUSH1 0x1E DUP2 MSTORE PUSH1 0x20 ADD DUP1 PUSH32 0x4163636F756E742063616E6E6F74206265207A65726F20616464726573730000 DUP2 MSTORE POP PUSH1 0x20 ADD SWAP2 POP POP PUSH1 0x40 MLOAD DUP1 SWAP2 SUB SWAP1 REVERT JUMPDEST PUSH1 0x0 DUP2 EXTCODESIZE SWAP1 POP PUSH1 0x0 DUP2 GT PUSH2 0x159C JUMPI PUSH1 0x40 MLOAD PUSH32 0x8C379A000000000000000000000000000000000000000000000000000000000 DUP2 MSTORE PUSH1 0x4 ADD DUP1 DUP1 PUSH1 0x20 ADD DUP3 DUP2 SUB DUP3 MSTORE PUSH1 0x20 DUP2 MSTORE PUSH1 0x20 ADD DUP1 PUSH32 0x4163636F756E7420636F64652073697A652063616E6E6F74206265207A65726F DUP2 MSTORE POP PUSH1 0x20 ADD SWAP2 POP POP PUSH1 0x40 MLOAD DUP1 SWAP2 SUB SWAP1 REVERT JUMPDEST POP POP JUMP JUMPDEST PUSH1 0x0 PUSH20 0xFFFFFFFFFFFFFFFFFFFFFFFFFFFFFFFFFFFFFFFF AND PUSH1 0x0 DUP1 SWAP1 SLOAD SWAP1 PUSH2 0x100 EXP SWAP1 DIV PUSH20 0xFFFFFFFFFFFFFFFFFFFFFFFFFFFFFFFFFFFFFFFF AND PUSH20 0xFFFFFFFFFFFFFFFFFFFFFFFFFFFFFFFFFFFFFFFF AND PUSH32 0x8BE0079C531659141344CD1FD0A4F28419497F9722A3DAAFE3B4186F6B6457E0 PUSH1 0x40 MLOAD PUSH1 0x40 MLOAD DUP1 SWAP2 SUB SWAP1 LOG3 PUSH1 0x0 DUP1 PUSH1 0x0 PUSH2 0x100 EXP DUP2 SLOAD DUP2 PUSH20 0xFFFFFFFFFFFFFFFFFFFFFFFFFFFFFFFFFFFFFFFF MUL NOT AND SWAP1 DUP4 PUSH20 0xFFFFFFFFFFFFFFFFFFFFFFFFFFFFFFFFFFFFFFFF AND MUL OR SWAP1 SSTORE POP JUMP JUMPDEST PUSH1 0x0 DUP2 PUSH1 0x60 ADD MLOAD PUSH2 0x1673 JUMPI PUSH1 0x1 SWAP1 POP PUSH2 0x16D3 JUMP JUMPDEST PUSH1 0x0 DUP3 PUSH1 0x0 ADD MLOAD PUSH10 0xFFFFFFFFFFFFFFFFFFFF AND EQ ISZERO PUSH2 0x1695 JUMPI PUSH1 0x1 SWAP1 POP PUSH2 0x16D3 JUMP JUMPDEST PUSH1 0x0 DUP3 PUSH1 0x40 ADD MLOAD EQ DUP1 PUSH2 0x16AB JUMPI POP TIMESTAMP DUP3 PUSH1 0x40 ADD MLOAD GT JUMPDEST ISZERO PUSH2 0x16B9 JUMPI PUSH1 0x1 SWAP1 POP PUSH2 0x16D3 JUMP JUMPDEST PUSH1 0x0 DUP3 PUSH1 0x20 ADD MLOAD SGT PUSH2 0x16CE JUMPI PUSH1 0x1 SWAP1 POP PUSH2 0x16D3 JUMP JUMPDEST PUSH1 0x0 SWAP1 POP JUMPDEST SWAP2 SWAP1 POP JUMP JUMPDEST PUSH1 0x0 PUSH2 0x171A DUP4 DUP4 PUSH1 0x40 MLOAD DUP1 PUSH1 0x40 ADD PUSH1 0x40 MSTORE DUP1 PUSH1 0x1E DUP2 MSTORE PUSH1 0x20 ADD PUSH32 0x536166654D6174683A207375627472616374696F6E206F766572666C6F770000 DUP2 MSTORE POP PUSH2 0x18E4 JUMP JUMPDEST SWAP1 POP SWAP3 SWAP2 POP POP JUMP JUMPDEST PUSH1 0x0 PUSH2 0x173E PUSH1 0x6 PUSH1 0x12 SUB PUSH1 0xA EXP DUP4 PUSH2 0x1814 SWAP1 SWAP2 SWAP1 PUSH4 0xFFFFFFFF AND JUMP JUMPDEST SWAP1 POP SWAP2 SWAP1 POP JUMP JUMPDEST DUP1 PUSH1 0x5 DUP2 SWAP1 SSTORE POP PUSH32 0x4D29DE21DE555AF78A62FC82DD4BC05E9AE5B0660A37F04729527E0F22780CD3 DUP2 PUSH1 0x40 MLOAD DUP1 DUP3 DUP2 MSTORE PUSH1 0x20 ADD SWAP2 POP POP PUSH1 0x40 MLOAD DUP1 SWAP2 SUB SWAP1 LOG1 POP JUMP JUMPDEST PUSH1 0x0 DUP1 PUSH1 0x12 DUP4 LT PUSH2 0x17B1 JUMPI PUSH2 0x17AA PUSH1 0x12 DUP5 SUB PUSH1 0xA EXP DUP6 PUSH2 0x189A SWAP1 SWAP2 SWAP1 PUSH4 0xFFFFFFFF AND JUMP JUMPDEST SWAP1 POP PUSH2 0x17D7 JUMP JUMPDEST PUSH1 0x12 DUP4 LT ISZERO PUSH2 0x17D6 JUMPI PUSH2 0x17D3 DUP4 PUSH1 0x12 SUB PUSH1 0xA EXP DUP6 PUSH2 0x1814 SWAP1 SWAP2 SWAP1 PUSH4 0xFFFFFFFF AND JUMP JUMPDEST SWAP1 POP JUMPDEST JUMPDEST DUP1 SWAP2 POP POP SWAP3 SWAP2 POP POP JUMP JUMPDEST PUSH1 0x0 DUP2 DUP4 LT PUSH2 0x17F0 JUMPI DUP2 PUSH2 0x17F2 JUMP JUMPDEST DUP3 JUMPDEST SWAP1 POP SWAP3 SWAP2 POP POP JUMP JUMPDEST PUSH1 0x0 DUP2 DUP4 LT ISZERO PUSH2 0x180A JUMPI DUP2 PUSH2 0x180C JUMP JUMPDEST DUP3 JUMPDEST SWAP1 POP SWAP3 SWAP2 POP POP JUMP JUMPDEST PUSH1 0x0 DUP1 DUP4 EQ ISZERO PUSH2 0x1827 JUMPI PUSH1 0x0 SWAP1 POP PUSH2 0x1894 JUMP JUMPDEST PUSH1 0x0 DUP3 DUP5 MUL SWAP1 POP DUP3 DUP5 DUP3 DUP2 PUSH2 0x1838 JUMPI INVALID JUMPDEST DIV EQ PUSH2 0x188F JUMPI PUSH1 0x40 MLOAD PUSH32 0x8C379A000000000000000000000000000000000000000000000000000000000 DUP2 MSTORE PUSH1 0x4 ADD DUP1 DUP1 PUSH1 0x20 ADD DUP3 DUP2 SUB DUP3 MSTORE PUSH1 0x21 DUP2 MSTORE PUSH1 0x20 ADD DUP1 PUSH2 0x1AD7 PUSH1 0x21 SWAP2 CODECOPY PUSH1 0x40 ADD SWAP2 POP POP PUSH1 0x40 MLOAD DUP1 SWAP2 SUB SWAP1 REVERT JUMPDEST DUP1 SWAP2 POP POP JUMPDEST SWAP3 SWAP2 POP POP JUMP JUMPDEST PUSH1 0x0 PUSH2 0x18DC DUP4 DUP4 PUSH1 0x40 MLOAD DUP1 PUSH1 0x40 ADD PUSH1 0x40 MSTORE DUP1 PUSH1 0x1A DUP2 MSTORE PUSH1 0x20 ADD PUSH32 0x536166654D6174683A206469766973696F6E206279207A65726F000000000000 DUP2 MSTORE POP PUSH2 0x19A4 JUMP JUMPDEST SWAP1 POP SWAP3 SWAP2 POP POP JUMP JUMPDEST PUSH1 0x0 DUP4 DUP4 GT ISZERO DUP3 SWAP1 PUSH2 0x1991 JUMPI PUSH1 0x40 MLOAD PUSH32 0x8C379A000000000000000000000000000000000000000000000000000000000 DUP2 MSTORE PUSH1 0x4 ADD DUP1 DUP1 PUSH1 0x20 ADD DUP3 DUP2 SUB DUP3 MSTORE DUP4 DUP2 DUP2 MLOAD DUP2 MSTORE PUSH1 0x20 ADD SWAP2 POP DUP1 MLOAD SWAP1 PUSH1 0x20 ADD SWAP1 DUP1 DUP4 DUP4 PUSH1 0x0 JUMPDEST DUP4 DUP2 LT ISZERO PUSH2 0x1956 JUMPI DUP1 DUP3 ADD MLOAD DUP2 DUP5 ADD MSTORE PUSH1 0x20 DUP2 ADD SWAP1 POP PUSH2 0x193B JUMP JUMPDEST POP POP POP POP SWAP1 POP SWAP1 DUP2 ADD SWAP1 PUSH1 0x1F AND DUP1 ISZERO PUSH2 0x1983 JUMPI DUP1 DUP3 SUB DUP1 MLOAD PUSH1 0x1 DUP4 PUSH1 0x20 SUB PUSH2 0x100 EXP SUB NOT AND DUP2 MSTORE PUSH1 0x20 ADD SWAP2 POP JUMPDEST POP SWAP3 POP POP POP PUSH1 0x40 MLOAD DUP1 SWAP2 SUB SWAP1 REVERT JUMPDEST POP PUSH1 0x0 DUP4 DUP6 SUB SWAP1 POP DUP1 SWAP2 POP POP SWAP4 SWAP3 POP POP POP JUMP JUMPDEST PUSH1 0x0 DUP1 DUP4 GT DUP3 SWAP1 PUSH2 0x1A50 JUMPI PUSH1 0x40 MLOAD PUSH32 0x8C379A000000000000000000000000000000000000000000000000000000000 DUP2 MSTORE PUSH1 0x4 ADD DUP1 DUP1 PUSH1 0x20 ADD DUP3 DUP2 SUB DUP3 MSTORE DUP4 DUP2 DUP2 MLOAD DUP2 MSTORE PUSH1 0x20 ADD SWAP2 POP DUP1 MLOAD SWAP1 PUSH1 0x20 ADD SWAP1 DUP1 DUP4 DUP4 PUSH1 0x0 JUMPDEST DUP4 DUP2 LT ISZERO PUSH2 0x1A15 JUMPI DUP1 DUP3 ADD MLOAD DUP2 DUP5 ADD MSTORE PUSH1 0x20 DUP2 ADD SWAP1 POP PUSH2 0x19FA JUMP JUMPDEST POP POP POP POP SWAP1 POP SWAP1 DUP2 ADD SWAP1 PUSH1 0x1F AND DUP1 ISZERO PUSH2 0x1A42 JUMPI DUP1 DUP3 SUB DUP1 MLOAD PUSH1 0x1 DUP4 PUSH1 0x20 SUB PUSH2 0x100 EXP SUB NOT AND DUP2 MSTORE PUSH1 0x20 ADD SWAP2 POP JUMPDEST POP SWAP3 POP POP POP PUSH1 0x40 MLOAD DUP1 SWAP2 SUB SWAP1 REVERT JUMPDEST POP PUSH1 0x0 DUP4 DUP6 DUP2 PUSH2 0x1A5C JUMPI INVALID JUMPDEST DIV SWAP1 POP DUP1 SWAP2 POP POP SWAP4 SWAP3 POP POP POP JUMP JUMPDEST PUSH1 0x40 MLOAD DUP1 PUSH1 0xA0 ADD PUSH1 0x40 MSTORE DUP1 PUSH1 0x0 PUSH10 0xFFFFFFFFFFFFFFFFFFFF AND DUP2 MSTORE PUSH1 0x20 ADD PUSH1 0x0 DUP2 MSTORE PUSH1 0x20 ADD PUSH1 0x0 DUP2 MSTORE PUSH1 0x20 ADD PUSH1 0x0 ISZERO ISZERO DUP2 MSTORE PUSH1 0x20 ADD PUSH1 0x0 PUSH1 0xFF AND DUP2 MSTORE POP SWAP1 JUMP JUMPDEST PUSH1 0x40 MLOAD DUP1 PUSH1 0x80 ADD PUSH1 0x40 MSTORE DUP1 PUSH1 0x0 ISZERO ISZERO DUP2 MSTORE PUSH1 0x20 ADD PUSH1 0x0 DUP2 MSTORE PUSH1 0x20 ADD PUSH1 0x0 DUP2 MSTORE PUSH1 0x20 ADD PUSH1 0x0 ISZERO ISZERO DUP2 MSTORE POP SWAP1 JUMP INVALID MSTORE8 PUSH2 0x6665 0x4D PUSH2 0x7468 GASPRICE KECCAK256 PUSH14 0x756C7469706C69636174696F6E20 PUSH16 0x766572666C6F77507269636546656564 GASPRICE KECCAK256 NUMBER PUSH9 0x61696E6C696E6B206D PUSH22 0x737420626520776F726B696E6720616E642063757272 PUSH6 0x6E74A2646970 PUSH7 0x7358221220B4E6 SHR 0x1F 0x5F 0xC3 0x2C 0xE0 0xA8 BLOCKHASH CODESIZE 0x5F 0x4F SWAP12 DUP5 EXP EXTCODEHASH PUSH5 0x2C5E79C2F4 0xED SWAP4 PUSH13 0x3E4DD9711DFD64736F6C634300 MOD SIGNEXTEND STOP CALLER "
		},
		"gasEstimates": {
			"creation": {
				"codeDepositCost": "1401000",
				"executionCost": "23868",
				"totalCost": "1424868"
			},
			"external": {
				"DECIMAL_PRECISION()": "227",
				"ETHUSD_TELLOR_REQ_ID()": "294",
				"MAX_PRICE_DEVIATION_FROM_PREVIOUS_ROUND()": "272",
				"MAX_PRICE_DIFFERENCE_BETWEEN_ORACLES()": "250",
				"NAME()": "infinite",
				"TARGET_DIGITS()": "273",
				"TELLOR_DIGITS()": "271",
				"TIMEOUT()": "293",
				"fetchPrice()": "infinite",
				"isOwner()": "1145",
				"lastGoodPrice()": "1029",
				"owner()": "1106",
				"priceAggregator()": "1076",
				"setAddresses(address,address)": "infinite",
				"status()": "1163",
				"tellorCaller()": "1076"
			},
			"internal": {
				"_badChainlinkResponse(struct PriceFeed.ChainlinkResponse memory)": "infinite",
				"_bothOraclesLiveAndUnbrokenAndSimilarPrice(struct PriceFeed.ChainlinkResponse memory,struct PriceFeed.ChainlinkResponse memory,struct PriceFeed.TellorResponse memory)": "infinite",
				"_bothOraclesSimilarPrice(struct PriceFeed.ChainlinkResponse memory,struct PriceFeed.TellorResponse memory)": "infinite",
				"_chainlinkIsBroken(struct PriceFeed.ChainlinkResponse memory,struct PriceFeed.ChainlinkResponse memory)": "infinite",
				"_chainlinkIsFrozen(struct PriceFeed.ChainlinkResponse memory)": "infinite",
				"_chainlinkPriceChangeAboveMax(struct PriceFeed.ChainlinkResponse memory,struct PriceFeed.ChainlinkResponse memory)": "infinite",
				"_changeStatus(enum PriceFeed.Status)": "infinite",
				"_getCurrentChainlinkResponse()": "infinite",
				"_getCurrentTellorResponse()": "infinite",
				"_getPrevChainlinkResponse(uint80,uint8)": "infinite",
				"_scaleChainlinkPriceByDigits(uint256,uint256)": "infinite",
				"_scaleTellorPriceByDigits(uint256)": "infinite",
				"_storeChainlinkPrice(struct PriceFeed.ChainlinkResponse memory)": "infinite",
				"_storePrice(uint256)": "infinite",
				"_storeTellorPrice(struct PriceFeed.TellorResponse memory)": "infinite",
				"_tellorIsBroken(struct PriceFeed.TellorResponse memory)": "infinite",
				"_tellorIsFrozen(struct PriceFeed.TellorResponse memory)": "infinite"
			}
		},
		"methodIdentifiers": {
			"DECIMAL_PRECISION()": "a20baee6",
			"ETHUSD_TELLOR_REQ_ID()": "5f42caf8",
			"MAX_PRICE_DEVIATION_FROM_PREVIOUS_ROUND()": "58a6aa88",
			"MAX_PRICE_DIFFERENCE_BETWEEN_ORACLES()": "45079cb4",
			"NAME()": "a3f4df7e",
			"TARGET_DIGITS()": "1be5c92f",
			"TELLOR_DIGITS()": "ebf8e6c6",
			"TIMEOUT()": "f56f48f2",
			"fetchPrice()": "0fdb11cf",
			"isOwner()": "8f32d59b",
			"lastGoodPrice()": "0490be83",
			"owner()": "8da5cb5b",
			"priceAggregator()": "3078fff5",
			"setAddresses(address,address)": "90107afe",
			"status()": "200d2ed2",
			"tellorCaller()": "7c61e3bf"
		}
	},
	"abi": [
		{
			"anonymous": false,
			"inputs": [
				{
					"indexed": false,
					"internalType": "uint256",
					"name": "_lastGoodPrice",
					"type": "uint256"
				}
			],
			"name": "LastGoodPriceUpdated",
			"type": "event"
		},
		{
			"anonymous": false,
			"inputs": [
				{
					"indexed": true,
					"internalType": "address",
					"name": "previousOwner",
					"type": "address"
				},
				{
					"indexed": true,
					"internalType": "address",
					"name": "newOwner",
					"type": "address"
				}
			],
			"name": "OwnershipTransferred",
			"type": "event"
		},
		{
			"anonymous": false,
			"inputs": [
				{
					"indexed": false,
					"internalType": "enum PriceFeed.Status",
					"name": "newStatus",
					"type": "uint8"
				}
			],
			"name": "PriceFeedStatusChanged",
			"type": "event"
		},
		{
			"inputs": [],
			"name": "DECIMAL_PRECISION",
			"outputs": [
				{
					"internalType": "uint256",
					"name": "",
					"type": "uint256"
				}
			],
			"stateMutability": "view",
			"type": "function"
		},
		{
			"inputs": [],
			"name": "ETHUSD_TELLOR_REQ_ID",
			"outputs": [
				{
					"internalType": "uint256",
					"name": "",
					"type": "uint256"
				}
			],
			"stateMutability": "view",
			"type": "function"
		},
		{
			"inputs": [],
			"name": "MAX_PRICE_DEVIATION_FROM_PREVIOUS_ROUND",
			"outputs": [
				{
					"internalType": "uint256",
					"name": "",
					"type": "uint256"
				}
			],
			"stateMutability": "view",
			"type": "function"
		},
		{
			"inputs": [],
			"name": "MAX_PRICE_DIFFERENCE_BETWEEN_ORACLES",
			"outputs": [
				{
					"internalType": "uint256",
					"name": "",
					"type": "uint256"
				}
			],
			"stateMutability": "view",
			"type": "function"
		},
		{
			"inputs": [],
			"name": "NAME",
			"outputs": [
				{
					"internalType": "string",
					"name": "",
					"type": "string"
				}
			],
			"stateMutability": "view",
			"type": "function"
		},
		{
			"inputs": [],
			"name": "TARGET_DIGITS",
			"outputs": [
				{
					"internalType": "uint256",
					"name": "",
					"type": "uint256"
				}
			],
			"stateMutability": "view",
			"type": "function"
		},
		{
			"inputs": [],
			"name": "TELLOR_DIGITS",
			"outputs": [
				{
					"internalType": "uint256",
					"name": "",
					"type": "uint256"
				}
			],
			"stateMutability": "view",
			"type": "function"
		},
		{
			"inputs": [],
			"name": "TIMEOUT",
			"outputs": [
				{
					"internalType": "uint256",
					"name": "",
					"type": "uint256"
				}
			],
			"stateMutability": "view",
			"type": "function"
		},
		{
			"inputs": [],
			"name": "fetchPrice",
			"outputs": [
				{
					"internalType": "uint256",
					"name": "",
					"type": "uint256"
				}
			],
			"stateMutability": "nonpayable",
			"type": "function"
		},
		{
			"inputs": [],
			"name": "isOwner",
			"outputs": [
				{
					"internalType": "bool",
					"name": "",
					"type": "bool"
				}
			],
			"stateMutability": "view",
			"type": "function"
		},
		{
			"inputs": [],
			"name": "lastGoodPrice",
			"outputs": [
				{
					"internalType": "uint256",
					"name": "",
					"type": "uint256"
				}
			],
			"stateMutability": "view",
			"type": "function"
		},
		{
			"inputs": [],
			"name": "owner",
			"outputs": [
				{
					"internalType": "address",
					"name": "",
					"type": "address"
				}
			],
			"stateMutability": "view",
			"type": "function"
		},
		{
			"inputs": [],
			"name": "priceAggregator",
			"outputs": [
				{
					"internalType": "contract AggregatorV3Interface",
					"name": "",
					"type": "address"
				}
			],
			"stateMutability": "view",
			"type": "function"
		},
		{
			"inputs": [
				{
					"internalType": "address",
					"name": "_priceAggregatorAddress",
					"type": "address"
				},
				{
					"internalType": "address",
					"name": "_tellorCallerAddress",
					"type": "address"
				}
			],
			"name": "setAddresses",
			"outputs": [],
			"stateMutability": "nonpayable",
			"type": "function"
		},
		{
			"inputs": [],
			"name": "status",
			"outputs": [
				{
					"internalType": "enum PriceFeed.Status",
					"name": "",
					"type": "uint8"
				}
			],
			"stateMutability": "view",
			"type": "function"
		},
		{
			"inputs": [],
			"name": "tellorCaller",
			"outputs": [
				{
					"internalType": "contract ITellorCaller",
					"name": "",
					"type": "address"
				}
			],
			"stateMutability": "view",
			"type": "function"
		}
	]
}